{
  "_format": "hh-sol-artifact-1",
  "contractName": "Roomrental",
  "sourceName": "src/contracts/roomrental.sol",
  "abi": [
    {
      "inputs": [
        {
          "internalType": "uint256",
          "name": "_taxPercent",
          "type": "uint256"
        },
        {
          "internalType": "uint256",
          "name": "_securityFee",
          "type": "uint256"
        }
      ],
      "stateMutability": "nonpayable",
      "type": "constructor"
    },
    {
      "anonymous": false,
      "inputs": [
        {
          "indexed": true,
          "internalType": "address",
          "name": "previousOwner",
          "type": "address"
        },
        {
          "indexed": true,
          "internalType": "address",
          "name": "newOwner",
          "type": "address"
        }
      ],
      "name": "OwnershipTransferred",
      "type": "event"
    },
    {
      "anonymous": false,
      "inputs": [
        {
          "indexed": false,
          "internalType": "uint256",
          "name": "newFee",
          "type": "uint256"
        }
      ],
      "name": "SecurityFeeUpdated",
      "type": "event"
    },
    {
      "inputs": [
        {
          "internalType": "uint256",
          "name": "appartmentId",
          "type": "uint256"
        },
        {
          "internalType": "string",
          "name": "reviewText",
          "type": "string"
        }
      ],
      "name": "addReview",
      "outputs": [],
      "stateMutability": "nonpayable",
      "type": "function"
    },
    {
      "inputs": [
        {
          "internalType": "uint256",
          "name": "id",
          "type": "uint256"
        },
        {
          "internalType": "uint256[]",
          "name": "dates",
          "type": "uint256[]"
        }
      ],
      "name": "bookApartment",
      "outputs": [],
      "stateMutability": "payable",
      "type": "function"
    },
    {
      "inputs": [
        {
          "internalType": "uint256",
          "name": "id",
          "type": "uint256"
        },
        {
          "internalType": "uint256",
          "name": "bookingId",
          "type": "uint256"
        }
      ],
      "name": "checkInApartment",
      "outputs": [],
      "stateMutability": "nonpayable",
      "type": "function"
    },
    {
      "inputs": [
        {
          "internalType": "uint256",
          "name": "id",
          "type": "uint256"
        },
        {
          "internalType": "uint256",
          "name": "bookingId",
          "type": "uint256"
        }
      ],
      "name": "claimFunds",
      "outputs": [],
      "stateMutability": "nonpayable",
      "type": "function"
    },
    {
      "inputs": [
        {
          "internalType": "string",
          "name": "title",
          "type": "string"
        },
        {
          "internalType": "string",
          "name": "description",
          "type": "string"
        },
        {
          "internalType": "string",
          "name": "images",
          "type": "string"
        },
        {
          "internalType": "string",
          "name": "category",
          "type": "string"
        },
        {
          "internalType": "string",
          "name": "location",
          "type": "string"
        },
        {
          "internalType": "uint256",
          "name": "bathrooms",
          "type": "uint256"
        },
        {
          "internalType": "uint256",
          "name": "guests",
          "type": "uint256"
        },
        {
          "internalType": "uint256",
          "name": "rooms",
          "type": "uint256"
        },
        {
          "internalType": "uint256",
          "name": "price",
          "type": "uint256"
        }
      ],
      "name": "createAppartment",
      "outputs": [],
      "stateMutability": "nonpayable",
      "type": "function"
    },
    {
      "inputs": [
        {
          "internalType": "uint256",
          "name": "id",
          "type": "uint256"
        }
      ],
      "name": "deleteAppartment",
      "outputs": [],
      "stateMutability": "nonpayable",
      "type": "function"
    },
    {
      "inputs": [
        {
          "internalType": "uint256",
          "name": "id",
          "type": "uint256"
        }
      ],
      "name": "getApartment",
      "outputs": [
        {
          "components": [
            {
              "internalType": "uint256",
              "name": "id",
              "type": "uint256"
            },
            {
              "internalType": "string",
              "name": "title",
              "type": "string"
            },
            {
              "internalType": "string",
              "name": "description",
              "type": "string"
            },
            {
              "internalType": "string",
              "name": "images",
              "type": "string"
            },
            {
              "internalType": "string",
              "name": "category",
              "type": "string"
            },
            {
              "internalType": "string",
              "name": "location",
              "type": "string"
            },
            {
              "internalType": "uint256",
              "name": "bathrooms",
              "type": "uint256"
            },
            {
              "internalType": "uint256",
              "name": "guests",
              "type": "uint256"
            },
            {
              "internalType": "uint256",
              "name": "rooms",
              "type": "uint256"
            },
            {
              "internalType": "uint256",
              "name": "price",
              "type": "uint256"
            },
            {
              "internalType": "address",
              "name": "owner",
              "type": "address"
            },
            {
              "internalType": "bool",
              "name": "booked",
              "type": "bool"
            },
            {
              "internalType": "bool",
              "name": "deleted",
              "type": "bool"
            },
            {
              "internalType": "bool",
              "name": "availablity",
              "type": "bool"
            },
            {
              "internalType": "uint256",
              "name": "timestamp",
              "type": "uint256"
            }
          ],
          "internalType": "struct Roomrental.ApartmentStruct",
          "name": "",
          "type": "tuple"
        }
      ],
      "stateMutability": "view",
      "type": "function"
    },
    {
      "inputs": [],
      "name": "getApartments",
      "outputs": [
        {
          "components": [
            {
              "internalType": "uint256",
              "name": "id",
              "type": "uint256"
            },
            {
              "internalType": "string",
              "name": "title",
              "type": "string"
            },
            {
              "internalType": "string",
              "name": "description",
              "type": "string"
            },
            {
              "internalType": "string",
              "name": "images",
              "type": "string"
            },
            {
              "internalType": "string",
              "name": "category",
              "type": "string"
            },
            {
              "internalType": "string",
              "name": "location",
              "type": "string"
            },
            {
              "internalType": "uint256",
              "name": "bathrooms",
              "type": "uint256"
            },
            {
              "internalType": "uint256",
              "name": "guests",
              "type": "uint256"
            },
            {
              "internalType": "uint256",
              "name": "rooms",
              "type": "uint256"
            },
            {
              "internalType": "uint256",
              "name": "price",
              "type": "uint256"
            },
            {
              "internalType": "address",
              "name": "owner",
              "type": "address"
            },
            {
              "internalType": "bool",
              "name": "booked",
              "type": "bool"
            },
            {
              "internalType": "bool",
              "name": "deleted",
              "type": "bool"
            },
            {
              "internalType": "bool",
              "name": "availablity",
              "type": "bool"
            },
            {
              "internalType": "uint256",
              "name": "timestamp",
              "type": "uint256"
            }
          ],
          "internalType": "struct Roomrental.ApartmentStruct[]",
          "name": "Apartments",
          "type": "tuple[]"
        }
      ],
      "stateMutability": "view",
      "type": "function"
    },
    {
      "inputs": [
        {
          "internalType": "uint256",
          "name": "id",
          "type": "uint256"
        },
        {
          "internalType": "uint256",
          "name": "bookingId",
          "type": "uint256"
        }
      ],
      "name": "getBooking",
      "outputs": [
        {
          "components": [
            {
              "internalType": "uint256",
              "name": "id",
              "type": "uint256"
            },
            {
              "internalType": "address",
              "name": "tenant",
              "type": "address"
            },
            {
              "internalType": "uint256",
              "name": "date",
              "type": "uint256"
            },
            {
              "internalType": "uint256",
              "name": "price",
              "type": "uint256"
            },
            {
              "internalType": "bool",
              "name": "checked",
              "type": "bool"
            },
            {
              "internalType": "bool",
              "name": "cancelled",
              "type": "bool"
            }
          ],
          "internalType": "struct Roomrental.BookingStruct",
          "name": "",
          "type": "tuple"
        }
      ],
      "stateMutability": "view",
      "type": "function"
    },
    {
      "inputs": [
        {
          "internalType": "uint256",
          "name": "id",
          "type": "uint256"
        }
      ],
      "name": "getBookings",
      "outputs": [
        {
          "components": [
            {
              "internalType": "uint256",
              "name": "id",
              "type": "uint256"
            },
            {
              "internalType": "address",
              "name": "tenant",
              "type": "address"
            },
            {
              "internalType": "uint256",
              "name": "date",
              "type": "uint256"
            },
            {
              "internalType": "uint256",
              "name": "price",
              "type": "uint256"
            },
            {
              "internalType": "bool",
              "name": "checked",
              "type": "bool"
            },
            {
              "internalType": "bool",
              "name": "cancelled",
              "type": "bool"
            }
          ],
          "internalType": "struct Roomrental.BookingStruct[]",
          "name": "",
          "type": "tuple[]"
        }
      ],
      "stateMutability": "view",
      "type": "function"
    },
    {
      "inputs": [
        {
          "internalType": "uint256",
          "name": "appartmentId",
          "type": "uint256"
        }
      ],
      "name": "getReviews",
      "outputs": [
        {
          "components": [
            {
              "internalType": "uint256",
              "name": "id",
              "type": "uint256"
            },
            {
              "internalType": "uint256",
              "name": "appartmentId",
              "type": "uint256"
            },
            {
              "internalType": "string",
              "name": "reviewText",
              "type": "string"
            },
            {
              "internalType": "uint256",
              "name": "timestamp",
              "type": "uint256"
            },
            {
              "internalType": "address",
              "name": "owner",
              "type": "address"
            }
          ],
          "internalType": "struct Roomrental.ReviewStruct[]",
          "name": "",
          "type": "tuple[]"
        }
      ],
      "stateMutability": "view",
      "type": "function"
    },
    {
      "inputs": [
        {
          "internalType": "uint256",
          "name": "id",
          "type": "uint256"
        }
      ],
      "name": "getUnavailableDates",
      "outputs": [
        {
          "internalType": "uint256[]",
          "name": "",
          "type": "uint256[]"
        }
      ],
      "stateMutability": "view",
      "type": "function"
    },
    {
      "inputs": [
        {
          "internalType": "uint256",
          "name": "id",
          "type": "uint256"
        },
        {
          "internalType": "uint256",
          "name": "bookingId",
          "type": "uint256"
        }
      ],
      "name": "hasBookedDateReached",
      "outputs": [
        {
          "internalType": "bool",
          "name": "",
          "type": "bool"
        }
      ],
      "stateMutability": "view",
      "type": "function"
    },
    {
      "inputs": [],
      "name": "owner",
      "outputs": [
        {
          "internalType": "address",
          "name": "",
          "type": "address"
        }
      ],
      "stateMutability": "view",
      "type": "function"
    },
    {
      "inputs": [
        {
          "internalType": "uint256",
          "name": "id",
          "type": "uint256"
        },
        {
          "internalType": "uint256",
          "name": "bookingId",
          "type": "uint256"
        },
        {
          "internalType": "uint256",
          "name": "date",
          "type": "uint256"
        }
      ],
      "name": "refundBooking",
      "outputs": [],
      "stateMutability": "nonpayable",
      "type": "function"
    },
    {
      "inputs": [],
      "name": "renounceOwnership",
      "outputs": [],
      "stateMutability": "nonpayable",
      "type": "function"
    },
    {
      "inputs": [],
      "name": "securityFee",
      "outputs": [
        {
          "internalType": "uint256",
          "name": "",
          "type": "uint256"
        }
      ],
      "stateMutability": "view",
      "type": "function"
    },
    {
      "inputs": [],
      "name": "taxPercent",
      "outputs": [
        {
          "internalType": "uint256",
          "name": "",
          "type": "uint256"
        }
      ],
      "stateMutability": "view",
      "type": "function"
    },
    {
      "inputs": [
        {
          "internalType": "uint256",
          "name": "appartmentId",
          "type": "uint256"
        }
      ],
      "name": "tenantBooked",
      "outputs": [
        {
          "internalType": "bool",
          "name": "",
          "type": "bool"
        }
      ],
      "stateMutability": "view",
      "type": "function"
    },
    {
      "inputs": [
        {
          "internalType": "address",
          "name": "newOwner",
          "type": "address"
        }
      ],
      "name": "transferOwnership",
      "outputs": [],
      "stateMutability": "nonpayable",
      "type": "function"
    },
    {
      "inputs": [
        {
          "internalType": "uint256",
          "name": "id",
          "type": "uint256"
        },
        {
          "internalType": "string",
          "name": "title",
          "type": "string"
        },
        {
          "internalType": "string",
          "name": "description",
          "type": "string"
        },
        {
          "internalType": "string",
          "name": "images",
          "type": "string"
        },
        {
          "internalType": "string",
          "name": "category",
          "type": "string"
        },
        {
          "internalType": "string",
          "name": "location",
          "type": "string"
        },
        {
          "internalType": "uint256",
          "name": "bathrooms",
          "type": "uint256"
        },
        {
          "internalType": "uint256",
          "name": "guests",
          "type": "uint256"
        },
        {
          "internalType": "uint256",
          "name": "rooms",
          "type": "uint256"
        },
        {
          "internalType": "uint256",
          "name": "price",
          "type": "uint256"
        }
      ],
      "name": "updateAppartment",
      "outputs": [],
      "stateMutability": "nonpayable",
      "type": "function"
    },
    {
      "inputs": [
        {
          "internalType": "uint256",
          "name": "newFee",
          "type": "uint256"
        }
      ],
      "name": "updateSecurityFee",
      "outputs": [],
      "stateMutability": "nonpayable",
      "type": "function"
    },
    {
      "inputs": [
        {
          "internalType": "uint256",
          "name": "newTaxPercent",
          "type": "uint256"
        }
      ],
      "name": "updateTaxPercent",
      "outputs": [],
      "stateMutability": "nonpayable",
      "type": "function"
    }
  ],
  "bytecode": "0x60806040523480156200001157600080fd5b506040516200379d3803806200379d8339810160408190526200003491620000a2565b6200003f3362000052565b60018055600491909155600355620000c7565b600080546001600160a01b038381166001600160a01b0319831681178455604051919092169283917f8be0079c531659141344cd1fd0a4f28419497f9722a3daafe3b4186f6b6457e09190a35050565b60008060408385031215620000b657600080fd5b505080516020909101519092909150565b6136c680620000d76000396000f3fe6080604052600436106101405760003560e01c8063af11cd9a116100b6578063df6e02221161006f578063df6e0222146103c8578063e16ca8d1146103db578063eb461445146103fb578063f2fde38b1461041b578063f40109951461043b578063f6ab7e3d1461046857600080fd5b8063af11cd9a146102f6578063b1c9809914610316578063c4452e0614610338578063d68e130214610365578063db2f80b71461037b578063dec30d39146103a857600080fd5b80637541f41c116101085780637541f41c146101f257806378419f61146102165780638da5cb5b146102365780639bd213701461025e5780639d4a22551461027e5780639f31a2be146102ab57600080fd5b8063010b58ee14610145578063455b3070146101675780635bb0c5d61461019d57806361591149146101bd578063715018a6146101dd575b600080fd5b34801561015157600080fd5b50610165610160366004612db9565b610488565b005b34801561017357600080fd5b50610187610182366004612db9565b6105ee565b6040516101949190612e1f565b60405180910390f35b3480156101a957600080fd5b506101656101b8366004612ee4565b610688565b3480156101c957600080fd5b506101656101d8366004612f2b565b61087c565b3480156101e957600080fd5b506101656108cc565b3480156101fe57600080fd5b5061020860045481565b604051908152602001610194565b34801561022257600080fd5b50610165610231366004612db9565b6108e0565b34801561024257600080fd5b506000546040516001600160a01b039091168152602001610194565b34801561026a57600080fd5b50610165610279366004612f44565b610a98565b34801561028a57600080fd5b5061029e610299366004612f2b565b610f0e565b6040516101949190613088565b3480156102b757600080fd5b506102e66102c6366004612f2b565b336000908152600b60209081526040808320938352929052205460ff1690565b6040519015158152602001610194565b34801561030257600080fd5b50610165610311366004613126565b611049565b34801561032257600080fd5b5061032b611926565b6040516101949190613338565b34801561034457600080fd5b50610358610353366004612f2b565b611dbe565b604051610194919061339a565b34801561037157600080fd5b5061020860035481565b34801561038757600080fd5b5061039b610396366004612f2b565b61214a565b60405161019491906133b4565b3480156103b457600080fd5b506101656103c3366004612f2b565b6121ac565b6101656103d63660046133f8565b61229b565b3480156103e757600080fd5b506101656103f63660046134aa565b612555565b34801561040757600080fd5b50610165610416366004612f2b565b6128b8565b34801561042757600080fd5b506101656104363660046134d6565b6128c5565b34801561044757600080fd5b5061045b610456366004612f2b565b61293e565b60405161019491906134ff565b34801561047457600080fd5b506102e6610483366004612db9565b6129ef565b6000828152600560205260409020600a01546001600160a01b031633146104ec5760405162461bcd60e51b8152602060048201526013602482015272556e617574686f72697a656420656e7469747960681b60448201526064015b60405180910390fd5b600082815260066020526040902080548290811061050c5761050c613541565b600091825260209091206004600590920201015460ff16156105405760405162461bcd60e51b81526004016104e390613557565b600082815260066020526040812080548390811061056057610560613541565b9060005260206000209060050201600301549050600060646004548361058691906135b4565b61059091906135d3565b6000858152600560205260409020600a01549091506105c1906001600160a01b03166105bc83856135f5565b612a34565b6105dc6105d66000546001600160a01b031690565b82612a34565b6105e833600354612a34565b50505050565b6105f6612c58565b600083815260066020526040902080548390811061061657610616613541565b60009182526020918290206040805160c08101825260059093029091018054835260018101546001600160a01b0316938301939093526002830154908201526003820154606082015260049091015460ff8082161515608084015261010090910416151560a082015290505b92915050565b60008281526008602052604090205460ff166106e65760405162461bcd60e51b815260206004820152601860248201527f4170706172746d656e74206e6f7420617661696c61626c65000000000000000060448201526064016104e3565b336000908152600b6020908152604080832085845290915290205460ff166107505760405162461bcd60e51b815260206004820152601860248201527f426f6f6b206669727374206265666f726520726576696577000000000000000060448201526064016104e3565b60008151116107a15760405162461bcd60e51b815260206004820152601b60248201527f52657669657720746578742063616e6e6f7420626520656d707479000000000060448201526064016104e3565b6107dc6040518060a001604052806000815260200160008152602001606081526020016000815260200160006001600160a01b031681525090565b600083815260076020818152604080842080548087528684018981529287018881524260608901523360808901529484526001808201835591865294839020865160059096020194855590519084015590518051849392610844926002850192910190612c9b565b5060608201516003820155608090910151600490910180546001600160a01b0319166001600160a01b03909216919091179055505050565b610884612a94565b6000811161089157600080fd5b60038190556040518181527f3790aeee57809af98fad1b89b9266c7934e03ed46702b541f2fef6f1e89d68279060200160405180910390a150565b6108d4612a94565b6108de6000612aee565b565b600082815260066020526040902080548290811061090057610900613541565b60009182526020909120600590910201600101546001600160a01b031633146109625760405162461bcd60e51b8152602060048201526014602482015273556e617574686f72697a65642074656e616e742160601b60448201526064016104e3565b600082815260066020526040902080548290811061098257610982613541565b600091825260209091206004600590920201015460ff16156109b65760405162461bcd60e51b81526004016104e390613557565b6000828152600660205260409020805460019190839081106109da576109da613541565b60009182526020808320600592909202909101600401805460ff191693151593909317909255838152600690915260408120805483908110610a1e57610a1e613541565b90600052602060002090600502016003015490506000606460045483610a4491906135b4565b610a4e91906135d3565b336000908152600b602090815260408083208884528252808320805460ff1916600117905560059091529020600a01549091506105c1906001600160a01b03166105bc83856135f5565b6000895111610ae15760405162461bcd60e51b81526020600482015260156024820152747469746c652063616e6e6f7420626520656d70747960581b60448201526064016104e3565b6000885111610b325760405162461bcd60e51b815260206004820152601b60248201527f4465736372697074696f6e2063616e6e6f7420626520656d707479000000000060448201526064016104e3565b6000875111610b7c5760405162461bcd60e51b8152602060048201526016602482015275496d616765732063616e6e6f7420626520656d70747960501b60448201526064016104e3565b6000865111610bc85760405162461bcd60e51b815260206004820152601860248201527763617465676f72792063616e6e6f7420626520656d70747960401b60448201526064016104e3565b6000855111610c145760405162461bcd60e51b81526020600482015260186024820152776c6f636174696f6e2063616e6e6f7420626520656d70747960401b60448201526064016104e3565b60008411610c5f5760405162461bcd60e51b815260206004820152601860248201527762617468726f6f6d732063616e6e6f74206265207a65726f60401b60448201526064016104e3565b60008311610ca75760405162461bcd60e51b81526020600482015260156024820152746775657374732063616e6e6f74206265207a65726f60581b60448201526064016104e3565b60008211610cee5760405162461bcd60e51b8152602060048201526014602482015273526f6f6d732063616e6e6f74206265207a65726f60601b60448201526064016104e3565b60008111610d355760405162461bcd60e51b815260206004820152601460248201527350726963652063616e6e6f74206265207a65726f60601b60448201526064016104e3565b610d43600280546001019055565b610d4b612d1f565b6002805480835260208084018d815260408086018e9052606086018d9052608086018c905260a086018b905260c086018a905260e08601899052610100860188905261012086018790523361014087015260016101a08701819052426101c0880152600094855260088452818520805460ff191682179055945484526005835290922084518155915180518594610de793908501920190612c9b565b5060408201518051610e03916002840191602090910190612c9b565b5060608201518051610e1f916003840191602090910190612c9b565b5060808201518051610e3b916004840191602090910190612c9b565b5060a08201518051610e57916005840191602090910190612c9b565b5060c0820151600682015560e0820151600782015561010082015160088201556101208201516009820155610140820151600a820180546101608501516101808601516101a08701511515600160b01b0260ff60b01b19911515600160a81b029190911661ffff60a81b19921515600160a01b026001600160a81b03199094166001600160a01b03909616959095179290921716929092179190911790556101c090910151600b9091015550505050505050505050565b606060076000838152602001908152602001600020805480602002602001604051908101604052809291908181526020016000905b8282101561103e57838290600052602060002090600502016040518060a00160405290816000820154815260200160018201548152602001600282018054610f8a9061360c565b80601f0160208091040260200160405190810160405280929190818152602001828054610fb69061360c565b80156110035780601f10610fd857610100808354040283529160200191611003565b820191906000526020600020905b815481529060010190602001808311610fe657829003601f168201915b505050918352505060038201546020808301919091526004909201546001600160a01b03166040909101529082526001929092019101610f43565b505050509050919050565b60008a81526008602052604090205460ff1615156001146110a35760405162461bcd60e51b8152602060048201526014602482015273105c1c185c9d1b595b9d081b9bdd08199bdd5b9960621b60448201526064016104e3565b60008a8152600560205260409020600a01546001600160a01b031633146111175760405162461bcd60e51b815260206004820152602260248201527f556e617574686f72697a656420706572736f6e6e656c2c206f776e6572206f6e6044820152616c7960f01b60648201526084016104e3565b60008951116111605760405162461bcd60e51b81526020600482015260156024820152747469746c652063616e6e6f7420626520656d70747960581b60448201526064016104e3565b60008851116111b15760405162461bcd60e51b815260206004820152601b60248201527f4465736372697074696f6e2063616e6e6f7420626520656d707479000000000060448201526064016104e3565b60008751116111fb5760405162461bcd60e51b8152602060048201526016602482015275496d616765732063616e6e6f7420626520656d70747960501b60448201526064016104e3565b60008651116112475760405162461bcd60e51b815260206004820152601860248201527763617465676f72792063616e6e6f7420626520656d70747960401b60448201526064016104e3565b60008551116112935760405162461bcd60e51b81526020600482015260186024820152776c6f636174696f6e2063616e6e6f7420626520656d70747960401b60448201526064016104e3565b600084116112de5760405162461bcd60e51b815260206004820152601860248201527762617468726f6f6d732063616e6e6f74206265207a65726f60401b60448201526064016104e3565b600083116113265760405162461bcd60e51b81526020600482015260156024820152746775657374732063616e6e6f74206265207a65726f60581b60448201526064016104e3565b6000821161136d5760405162461bcd60e51b8152602060048201526014602482015273526f6f6d732063616e6e6f74206265207a65726f60601b60448201526064016104e3565b600081116113b45760405162461bcd60e51b815260206004820152601460248201527350726963652063616e6e6f74206265207a65726f60601b60448201526064016104e3565b6000600560008c8152602001908152602001600020604051806101e0016040529081600082015481526020016001820180546113ef9061360c565b80601f016020809104026020016040519081016040528092919081815260200182805461141b9061360c565b80156114685780601f1061143d57610100808354040283529160200191611468565b820191906000526020600020905b81548152906001019060200180831161144b57829003601f168201915b505050505081526020016002820180546114819061360c565b80601f01602080910402602001604051908101604052809291908181526020018280546114ad9061360c565b80156114fa5780601f106114cf576101008083540402835291602001916114fa565b820191906000526020600020905b8154815290600101906020018083116114dd57829003601f168201915b505050505081526020016003820180546115139061360c565b80601f016020809104026020016040519081016040528092919081815260200182805461153f9061360c565b801561158c5780601f106115615761010080835404028352916020019161158c565b820191906000526020600020905b81548152906001019060200180831161156f57829003601f168201915b505050505081526020016004820180546115a59061360c565b80601f01602080910402602001604051908101604052809291908181526020018280546115d19061360c565b801561161e5780601f106115f35761010080835404028352916020019161161e565b820191906000526020600020905b81548152906001019060200180831161160157829003601f168201915b505050505081526020016005820180546116379061360c565b80601f01602080910402602001604051908101604052809291908181526020018280546116639061360c565b80156116b05780601f10611685576101008083540402835291602001916116b0565b820191906000526020600020905b81548152906001019060200180831161169357829003601f168201915b5050505050815260200160068201548152602001600782015481526020016008820154815260200160098201548152602001600a820160009054906101000a90046001600160a01b03166001600160a01b03166001600160a01b03168152602001600a820160149054906101000a900460ff16151515158152602001600a820160159054906101000a900460ff16151515158152602001600a820160169054906101000a900460ff16151515158152602001600b820154815250509050898160200181905250888160400181905250878160600181905250868160800181905250858160a00181905250848160c0018181525050838160e00181815250508281610100018181525050818161012001818152505080600560008d81526020019081526020016000206000820151816000015560208201518160010190805190602001906117fe929190612c9b565b506040820151805161181a916002840191602090910190612c9b565b5060608201518051611836916003840191602090910190612c9b565b5060808201518051611852916004840191602090910190612c9b565b5060a0820151805161186e916005840191602090910190612c9b565b5060c0820151600682015560e0820151600782015561010082015160088201556101208201516009820155610140820151600a820180546101608501516101808601516101a08701511515600160b01b0260ff60b01b19911515600160a81b029190911661ffff60a81b19921515600160a01b026001600160a81b03199094166001600160a01b03909616959095179290921716929092179190911790556101c090910151600b909101555050505050505050505050565b6060600060015b6002548111611976576000818152600560205260409020600a0154600160a81b900460ff16611964578161196081613647565b9250505b8061196e81613647565b91505061192d565b508067ffffffffffffffff81111561199057611990612e2d565b6040519080825280602002602001820160405280156119c957816020015b6119b6612d1f565b8152602001906001900390816119ae5790505b509150600060015b6002548111611db8576000818152600560205260409020600a0154600160a81b900460ff16611da65760056000828152602001908152602001600020604051806101e001604052908160008201548152602001600182018054611a339061360c565b80601f0160208091040260200160405190810160405280929190818152602001828054611a5f9061360c565b8015611aac5780601f10611a8157610100808354040283529160200191611aac565b820191906000526020600020905b815481529060010190602001808311611a8f57829003601f168201915b50505050508152602001600282018054611ac59061360c565b80601f0160208091040260200160405190810160405280929190818152602001828054611af19061360c565b8015611b3e5780601f10611b1357610100808354040283529160200191611b3e565b820191906000526020600020905b815481529060010190602001808311611b2157829003601f168201915b50505050508152602001600382018054611b579061360c565b80601f0160208091040260200160405190810160405280929190818152602001828054611b839061360c565b8015611bd05780601f10611ba557610100808354040283529160200191611bd0565b820191906000526020600020905b815481529060010190602001808311611bb357829003601f168201915b50505050508152602001600482018054611be99061360c565b80601f0160208091040260200160405190810160405280929190818152602001828054611c159061360c565b8015611c625780601f10611c3757610100808354040283529160200191611c62565b820191906000526020600020905b815481529060010190602001808311611c4557829003601f168201915b50505050508152602001600582018054611c7b9061360c565b80601f0160208091040260200160405190810160405280929190818152602001828054611ca79061360c565b8015611cf45780601f10611cc957610100808354040283529160200191611cf4565b820191906000526020600020905b815481529060010190602001808311611cd757829003601f168201915b505050918352505060068201546020820152600782015460408201526008820154606082015260098201546080820152600a8201546001600160a01b03811660a083015260ff600160a01b82048116151560c0840152600160a81b82048116151560e0840152600160b01b909104161515610100820152600b90910154610120909101528451859084908110611d8c57611d8c613541565b60200260200101819052508180611da290613647565b9250505b80611db081613647565b9150506119d1565b50505090565b611dc6612d1f565b60056000838152602001908152602001600020604051806101e001604052908160008201548152602001600182018054611dff9061360c565b80601f0160208091040260200160405190810160405280929190818152602001828054611e2b9061360c565b8015611e785780601f10611e4d57610100808354040283529160200191611e78565b820191906000526020600020905b815481529060010190602001808311611e5b57829003601f168201915b50505050508152602001600282018054611e919061360c565b80601f0160208091040260200160405190810160405280929190818152602001828054611ebd9061360c565b8015611f0a5780601f10611edf57610100808354040283529160200191611f0a565b820191906000526020600020905b815481529060010190602001808311611eed57829003601f168201915b50505050508152602001600382018054611f239061360c565b80601f0160208091040260200160405190810160405280929190818152602001828054611f4f9061360c565b8015611f9c5780601f10611f7157610100808354040283529160200191611f9c565b820191906000526020600020905b815481529060010190602001808311611f7f57829003601f168201915b50505050508152602001600482018054611fb59061360c565b80601f0160208091040260200160405190810160405280929190818152602001828054611fe19061360c565b801561202e5780601f106120035761010080835404028352916020019161202e565b820191906000526020600020905b81548152906001019060200180831161201157829003601f168201915b505050505081526020016005820180546120479061360c565b80601f01602080910402602001604051908101604052809291908181526020018280546120739061360c565b80156120c05780601f10612095576101008083540402835291602001916120c0565b820191906000526020600020905b8154815290600101906020018083116120a357829003601f168201915b505050918352505060068201546020820152600782015460408201526008820154606082015260098201546080820152600a8201546001600160a01b03811660a083015260ff600160a01b82048116151560c0840152600160a81b82048116151560e0840152600160b01b909104161515610100820152600b909101546101209091015292915050565b6000818152600960209081526040918290208054835181840281018401909452808452606093928301828280156121a057602002820191906000526020600020905b81548152602001906001019080831161218c575b50505050509050919050565b60008181526008602052604090205460ff1615156001146122065760405162461bcd60e51b8152602060048201526014602482015273105c1c185c9d1b595b9d081b9bdd08199bdd5b9960621b60448201526064016104e3565b6000818152600560205260409020600a01546001600160a01b031633146122655760405162461bcd60e51b8152602060048201526013602482015272556e617574686f72697a656420656e7469747960681b60448201526064016104e3565b6000908152600860209081526040808320805460ff1916905560059091529020600a01805460ff60a81b1916600160a81b179055565b60008281526008602052604090205460ff166122f05760405162461bcd60e51b815260206004820152601460248201527341706172746d656e74206e6f7420666f756e642160601b60448201526064016104e3565b600354815160008481526005602052604090206009015461231191906135b4565b61231b9190613662565b34101561235f5760405162461bcd60e51b8152602060048201526012602482015271496e73756666696369656e742066756e642160701b60448201526064016104e3565b6123698282612b3e565b6123b55760405162461bcd60e51b815260206004820152601e60248201527f426f6f6b6564206461746520666f756e6420616d6f6e6720646174657321000060448201526064016104e3565b60005b8151811015612550576123c9612c58565b6000848152600660209081526040909120548252339082015282518390839081106123f6576123f6613541565b6020908102919091018101516040808401918252600087815260058085528282206009015460608701908152898352600686528383208054600181810183559185528785208951919094029093019283558787015183820180546001600160a01b039092166001600160a01b03199092169190911790559451600283015551600382015560808601516004909101805460a088015115156101000261ff00199315159390931661ffff1990911617919091179055878152600a90935282208551919290918690869081106124cc576124cc613541565b6020026020010151815260200190815260200160002060006101000a81548160ff0219169083151502179055506009600085815260200190815260200160002083838151811061251e5761251e613541565b60209081029190910181015182546001810184556000938452919092200155508061254881613647565b9150506123b8565b505050565b61255d612be3565b600083815260066020526040902080548390811061257d5761257d613541565b600091825260209091206004600590920201015460ff16156125b15760405162461bcd60e51b81526004016104e390613557565b6000546001600160a01b031633146126df5760008381526006602052604090208054839081106125e3576125e3613541565b60009182526020909120600590910201600101546001600160a01b031633146126455760405162461bcd60e51b8152602060048201526014602482015273556e617574686f72697a65642074656e616e742160601b60448201526064016104e3565b61264d612c3d565b600084815260066020526040902080548490811061266d5761266d613541565b906000526020600020906005020160020154116126df5760405162461bcd60e51b815260206004820152602a60248201527f43616e206e6f206c6f6e67657220726566756e642c20626f6f6b696e672064616044820152691d19481cdd185c9d195960b21b60648201526084016104e3565b60008381526006602052604090208054600191908490811061270357612703613541565b6000918252602080832060046005909302019190910180549315156101000261ff001990941693909317909255848152600a825260408082208483528352808220805460ff19169055858252600990925290812054612764906001906135f5565b6000858152600960205260408120805492935090918390811061278957612789613541565b90600052602060002001549050806009600087815260200190815260200160002085815481106127bb576127bb613541565b9060005260206000200181905550600960008681526020019081526020016000208054806127eb576127eb61367a565b60019003818190600052602060002001600090559055600060066000878152602001908152602001600020858154811061282757612827613541565b90600052602060002090600502016003015490506000606460045460035461284f91906135b4565b61285991906135d3565b6000888152600560205260409020600a015460035491925061288c916001600160a01b03909116906105bc9084906135f5565b6128a16105d66000546001600160a01b031690565b6128ab3383612a34565b5050505061255060018055565b6128c0612a94565b600455565b6128cd612a94565b6001600160a01b0381166129325760405162461bcd60e51b815260206004820152602660248201527f4f776e61626c653a206e6577206f776e657220697320746865207a65726f206160448201526564647265737360d01b60648201526084016104e3565b61293b81612aee565b50565b606060066000838152602001908152602001600020805480602002602001604051908101604052809291908181526020016000905b8282101561103e5760008481526020908190206040805160c08101825260058602909201805483526001808201546001600160a01b031684860152600282015492840192909252600381015460608401526004015460ff8082161515608085015261010090910416151560a08301529083529092019101612973565b60006129f9612c3d565b6000848152600660205260409020805484908110612a1957612a19613541565b90600052602060002090600502016002015410905092915050565b6000826001600160a01b03168260405160006040518083038185875af1925050503d8060008114612a81576040519150601f19603f3d011682016040523d82523d6000602084013e612a86565b606091505b505090508061255057600080fd5b6000546001600160a01b031633146108de5760405162461bcd60e51b815260206004820181905260248201527f4f776e61626c653a2063616c6c6572206973206e6f7420746865206f776e657260448201526064016104e3565b600080546001600160a01b038381166001600160a01b0319831681178455604051919092169283917f8be0079c531659141344cd1fd0a4f28419497f9722a3daafe3b4186f6b6457e09190a35050565b60006001815b8351811015612bdb5760005b600086815260096020526040902054811015612bc8576000868152600960205260409020805482908110612b8657612b86613541565b9060005260206000200154858381518110612ba357612ba3613541565b60200260200101511415612bb657600092505b80612bc081613647565b915050612b50565b5080612bd381613647565b915050612b44565b509392505050565b60026001541415612c365760405162461bcd60e51b815260206004820152601f60248201527f5265656e7472616e637947756172643a207265656e7472616e742063616c6c0060448201526064016104e3565b6002600155565b600080612c4c426103e86135b4565b610682906103e8613662565b6040518060c001604052806000815260200160006001600160a01b0316815260200160008152602001600081526020016000151581526020016000151581525090565b828054612ca79061360c565b90600052602060002090601f016020900481019282612cc95760008555612d0f565b82601f10612ce257805160ff1916838001178555612d0f565b82800160010185558215612d0f579182015b82811115612d0f578251825591602001919060010190612cf4565b50612d1b929150612da4565b5090565b604051806101e001604052806000815260200160608152602001606081526020016060815260200160608152602001606081526020016000815260200160008152602001600081526020016000815260200160006001600160a01b03168152602001600015158152602001600015158152602001600015158152602001600081525090565b5b80821115612d1b5760008155600101612da5565b60008060408385031215612dcc57600080fd5b50508035926020909101359150565b805182526020808201516001600160a01b031690830152604080820151908301526060808201519083015260808082015115159083015260a0908101511515910152565b60c081016106828284612ddb565b634e487b7160e01b600052604160045260246000fd5b604051601f8201601f1916810167ffffffffffffffff81118282101715612e6c57612e6c612e2d565b604052919050565b600082601f830112612e8557600080fd5b813567ffffffffffffffff811115612e9f57612e9f612e2d565b612eb2601f8201601f1916602001612e43565b818152846020838601011115612ec757600080fd5b816020850160208301376000918101602001919091529392505050565b60008060408385031215612ef757600080fd5b82359150602083013567ffffffffffffffff811115612f1557600080fd5b612f2185828601612e74565b9150509250929050565b600060208284031215612f3d57600080fd5b5035919050565b60008060008060008060008060006101208a8c031215612f6357600080fd5b893567ffffffffffffffff80821115612f7b57600080fd5b612f878d838e01612e74565b9a5060208c0135915080821115612f9d57600080fd5b612fa98d838e01612e74565b995060408c0135915080821115612fbf57600080fd5b612fcb8d838e01612e74565b985060608c0135915080821115612fe157600080fd5b612fed8d838e01612e74565b975060808c013591508082111561300357600080fd5b506130108c828d01612e74565b999c989b50969995989760a0870135975060c08701359660e081013596506101000135945092505050565b6000815180845260005b8181101561306157602081850181015186830182015201613045565b81811115613073576000602083870101525b50601f01601f19169290920160200192915050565b60006020808301818452808551808352604092508286019150828160051b87010184880160005b8381101561311857603f19898403018552815160a08151855288820151898601528782015181898701526130e58287018261303b565b606084810151908801526080938401516001600160a01b03169390960192909252505093860193908601906001016130af565b509098975050505050505050565b6000806000806000806000806000806101408b8d03121561314657600080fd5b8a35995060208b013567ffffffffffffffff8082111561316557600080fd5b6131718e838f01612e74565b9a5060408d013591508082111561318757600080fd5b6131938e838f01612e74565b995060608d01359150808211156131a957600080fd5b6131b58e838f01612e74565b985060808d01359150808211156131cb57600080fd5b6131d78e838f01612e74565b975060a08d01359150808211156131ed57600080fd5b506131fa8d828e01612e74565b95505060c08b0135935060e08b013592506101008b013591506101208b013590509295989b9194979a5092959850565b60006101e082518452602083015181602086015261324a8286018261303b565b91505060408301518482036040860152613264828261303b565b9150506060830151848203606086015261327e828261303b565b91505060808301518482036080860152613298828261303b565b91505060a083015184820360a08601526132b2828261303b565b91505060c083015160c085015260e083015160e0850152610100808401518186015250610120808401518186015250610140808401516132fc828701826001600160a01b03169052565b505061016083810151151590850152610180808401511515908501526101a0808401511515908501526101c09283015192909301919091525090565b6000602080830181845280855180835260408601915060408160051b870101925083870160005b8281101561338d57603f1988860301845261337b85835161322a565b9450928501929085019060010161335f565b5092979650505050505050565b6020815260006133ad602083018461322a565b9392505050565b6020808252825182820181905260009190848201906040850190845b818110156133ec578351835292840192918401916001016133d0565b50909695505050505050565b6000806040838503121561340b57600080fd5b8235915060208084013567ffffffffffffffff8082111561342b57600080fd5b818601915086601f83011261343f57600080fd5b81358181111561345157613451612e2d565b8060051b9150613462848301612e43565b818152918301840191848101908984111561347c57600080fd5b938501935b8385101561349a57843582529385019390850190613481565b8096505050505050509250929050565b6000806000606084860312156134bf57600080fd5b505081359360208301359350604090920135919050565b6000602082840312156134e857600080fd5b81356001600160a01b03811681146133ad57600080fd5b6020808252825182820181905260009190848201906040850190845b818110156133ec5761352e838551612ddb565b9284019260c0929092019160010161351b565b634e487b7160e01b600052603260045260246000fd5b60208082526027908201527f41706172746d656e7420616c726561647920636865636b6564206f6e207468696040820152667320646174652160c81b606082015260800190565b634e487b7160e01b600052601160045260246000fd5b60008160001904831182151516156135ce576135ce61359e565b500290565b6000826135f057634e487b7160e01b600052601260045260246000fd5b500490565b6000828210156136075761360761359e565b500390565b600181811c9082168061362057607f821691505b6020821081141561364157634e487b7160e01b600052602260045260246000fd5b50919050565b600060001982141561365b5761365b61359e565b5060010190565b600082198211156136755761367561359e565b500190565b634e487b7160e01b600052603160045260246000fdfea2646970667358221220fff389c75d9d107d6eecd3c4560d7e8795d7fb50e1db49e61de490a79757603764736f6c634300080b0033",
  "linkReferences": {},
  "deployedLinkReferences": {}
}