{
  "_format": "hh-sol-artifact-1",
  "contractName": "Roomrental",
  "sourceName": "src/contracts/roomrental.sol",
  "abi": [
    {
      "inputs": [
        {
          "internalType": "uint256",
          "name": "_taxPercent",
          "type": "uint256"
        },
        {
          "internalType": "uint256",
          "name": "_securityFee",
          "type": "uint256"
        }
      ],
      "stateMutability": "nonpayable",
      "type": "constructor"
    },
    {
      "anonymous": false,
      "inputs": [
        {
          "indexed": true,
          "internalType": "address",
          "name": "previousOwner",
          "type": "address"
        },
        {
          "indexed": true,
          "internalType": "address",
          "name": "newOwner",
          "type": "address"
        }
      ],
      "name": "OwnershipTransferred",
      "type": "event"
    },
    {
      "anonymous": false,
      "inputs": [
        {
          "indexed": false,
          "internalType": "uint256",
          "name": "newFee",
          "type": "uint256"
        }
      ],
      "name": "SecurityFeeUpdated",
      "type": "event"
    },
    {
      "inputs": [
        {
          "internalType": "uint256",
          "name": "appartmentId",
          "type": "uint256"
        },
        {
          "internalType": "string",
          "name": "reviewText",
          "type": "string"
        }
      ],
      "name": "addReview",
      "outputs": [],
      "stateMutability": "nonpayable",
      "type": "function"
    },
    {
      "inputs": [
        {
          "internalType": "uint256",
          "name": "id",
          "type": "uint256"
        },
        {
          "internalType": "uint256",
          "name": "reservationId",
          "type": "uint256"
        }
      ],
      "name": "checkInApartment",
      "outputs": [],
      "stateMutability": "nonpayable",
      "type": "function"
    },
    {
      "inputs": [
        {
          "internalType": "uint256",
          "name": "id",
          "type": "uint256"
        },
        {
          "internalType": "uint256",
          "name": "reservationId",
          "type": "uint256"
        }
      ],
      "name": "claimFunds",
      "outputs": [],
      "stateMutability": "nonpayable",
      "type": "function"
    },
    {
      "inputs": [
        {
          "internalType": "string",
          "name": "title",
          "type": "string"
        },
        {
          "internalType": "string",
          "name": "description",
          "type": "string"
        },
        {
          "internalType": "string",
          "name": "images",
          "type": "string"
        },
        {
          "internalType": "string",
          "name": "category",
          "type": "string"
        },
        {
          "internalType": "string",
          "name": "location",
          "type": "string"
        },
        {
          "internalType": "uint256",
          "name": "bathrooms",
          "type": "uint256"
        },
        {
          "internalType": "uint256",
          "name": "guests",
          "type": "uint256"
        },
        {
          "internalType": "uint256",
          "name": "rooms",
          "type": "uint256"
        },
        {
          "internalType": "uint256",
          "name": "price",
          "type": "uint256"
        }
      ],
      "name": "createAppartment",
      "outputs": [],
      "stateMutability": "nonpayable",
      "type": "function"
    },
    {
      "inputs": [
        {
          "internalType": "uint256",
          "name": "id",
          "type": "uint256"
        }
      ],
      "name": "deleteAppartment",
      "outputs": [],
      "stateMutability": "nonpayable",
      "type": "function"
    },
    {
      "inputs": [
        {
          "internalType": "uint256",
          "name": "id",
          "type": "uint256"
        }
      ],
      "name": "getApartment",
      "outputs": [
        {
          "components": [
            {
              "internalType": "uint256",
              "name": "id",
              "type": "uint256"
            },
            {
              "internalType": "string",
              "name": "title",
              "type": "string"
            },
            {
              "internalType": "string",
              "name": "description",
              "type": "string"
            },
            {
              "internalType": "string",
              "name": "images",
              "type": "string"
            },
            {
              "internalType": "string",
              "name": "category",
              "type": "string"
            },
            {
              "internalType": "string",
              "name": "location",
              "type": "string"
            },
            {
              "internalType": "uint256",
              "name": "bathrooms",
              "type": "uint256"
            },
            {
              "internalType": "uint256",
              "name": "guests",
              "type": "uint256"
            },
            {
              "internalType": "uint256",
              "name": "rooms",
              "type": "uint256"
            },
            {
              "internalType": "uint256",
              "name": "price",
              "type": "uint256"
            },
            {
              "internalType": "address",
              "name": "owner",
              "type": "address"
            },
            {
              "internalType": "bool",
              "name": "reservateed",
              "type": "bool"
            },
            {
              "internalType": "bool",
              "name": "deleted",
              "type": "bool"
            },
            {
              "internalType": "bool",
              "name": "availablity",
              "type": "bool"
            },
            {
              "internalType": "uint256",
              "name": "timestamp",
              "type": "uint256"
            }
          ],
          "internalType": "struct Roomrental.ApartmentStruct",
          "name": "",
          "type": "tuple"
        }
      ],
      "stateMutability": "view",
      "type": "function"
    },
    {
      "inputs": [],
      "name": "getApartments",
      "outputs": [
        {
          "components": [
            {
              "internalType": "uint256",
              "name": "id",
              "type": "uint256"
            },
            {
              "internalType": "string",
              "name": "title",
              "type": "string"
            },
            {
              "internalType": "string",
              "name": "description",
              "type": "string"
            },
            {
              "internalType": "string",
              "name": "images",
              "type": "string"
            },
            {
              "internalType": "string",
              "name": "category",
              "type": "string"
            },
            {
              "internalType": "string",
              "name": "location",
              "type": "string"
            },
            {
              "internalType": "uint256",
              "name": "bathrooms",
              "type": "uint256"
            },
            {
              "internalType": "uint256",
              "name": "guests",
              "type": "uint256"
            },
            {
              "internalType": "uint256",
              "name": "rooms",
              "type": "uint256"
            },
            {
              "internalType": "uint256",
              "name": "price",
              "type": "uint256"
            },
            {
              "internalType": "address",
              "name": "owner",
              "type": "address"
            },
            {
              "internalType": "bool",
              "name": "reservateed",
              "type": "bool"
            },
            {
              "internalType": "bool",
              "name": "deleted",
              "type": "bool"
            },
            {
              "internalType": "bool",
              "name": "availablity",
              "type": "bool"
            },
            {
              "internalType": "uint256",
              "name": "timestamp",
              "type": "uint256"
            }
          ],
          "internalType": "struct Roomrental.ApartmentStruct[]",
          "name": "Apartments",
          "type": "tuple[]"
        }
      ],
      "stateMutability": "view",
      "type": "function"
    },
    {
      "inputs": [
        {
          "internalType": "uint256",
          "name": "id",
          "type": "uint256"
        },
        {
          "internalType": "uint256",
          "name": "reservationId",
          "type": "uint256"
        }
      ],
      "name": "getReservation",
      "outputs": [
        {
          "components": [
            {
              "internalType": "uint256",
              "name": "id",
              "type": "uint256"
            },
            {
              "internalType": "address",
              "name": "tenant",
              "type": "address"
            },
            {
              "internalType": "uint256",
              "name": "date",
              "type": "uint256"
            },
            {
              "internalType": "uint256",
              "name": "price",
              "type": "uint256"
            },
            {
              "internalType": "bool",
              "name": "checked",
              "type": "bool"
            },
            {
              "internalType": "bool",
              "name": "cancelled",
              "type": "bool"
            }
          ],
          "internalType": "struct Roomrental.ReservationStruct",
          "name": "",
          "type": "tuple"
        }
      ],
      "stateMutability": "view",
      "type": "function"
    },
    {
      "inputs": [
        {
          "internalType": "uint256",
          "name": "id",
          "type": "uint256"
        }
      ],
      "name": "getReservations",
      "outputs": [
        {
          "components": [
            {
              "internalType": "uint256",
              "name": "id",
              "type": "uint256"
            },
            {
              "internalType": "address",
              "name": "tenant",
              "type": "address"
            },
            {
              "internalType": "uint256",
              "name": "date",
              "type": "uint256"
            },
            {
              "internalType": "uint256",
              "name": "price",
              "type": "uint256"
            },
            {
              "internalType": "bool",
              "name": "checked",
              "type": "bool"
            },
            {
              "internalType": "bool",
              "name": "cancelled",
              "type": "bool"
            }
          ],
          "internalType": "struct Roomrental.ReservationStruct[]",
          "name": "",
          "type": "tuple[]"
        }
      ],
      "stateMutability": "view",
      "type": "function"
    },
    {
      "inputs": [
        {
          "internalType": "uint256",
          "name": "appartmentId",
          "type": "uint256"
        }
      ],
      "name": "getReviews",
      "outputs": [
        {
          "components": [
            {
              "internalType": "uint256",
              "name": "id",
              "type": "uint256"
            },
            {
              "internalType": "uint256",
              "name": "appartmentId",
              "type": "uint256"
            },
            {
              "internalType": "string",
              "name": "reviewText",
              "type": "string"
            },
            {
              "internalType": "uint256",
              "name": "timestamp",
              "type": "uint256"
            },
            {
              "internalType": "address",
              "name": "owner",
              "type": "address"
            }
          ],
          "internalType": "struct Roomrental.ReviewStruct[]",
          "name": "",
          "type": "tuple[]"
        }
      ],
      "stateMutability": "view",
      "type": "function"
    },
    {
      "inputs": [
        {
          "internalType": "uint256",
          "name": "id",
          "type": "uint256"
        }
      ],
      "name": "getUnavailableDates",
      "outputs": [
        {
          "internalType": "uint256[]",
          "name": "",
          "type": "uint256[]"
        }
      ],
      "stateMutability": "view",
      "type": "function"
    },
    {
      "inputs": [
        {
          "internalType": "uint256",
          "name": "id",
          "type": "uint256"
        },
        {
          "internalType": "uint256",
          "name": "reservationId",
          "type": "uint256"
        }
      ],
      "name": "hasBookedDateReached",
      "outputs": [
        {
          "internalType": "bool",
          "name": "",
          "type": "bool"
        }
      ],
      "stateMutability": "view",
      "type": "function"
    },
    {
      "inputs": [],
      "name": "owner",
      "outputs": [
        {
          "internalType": "address",
          "name": "",
          "type": "address"
        }
      ],
      "stateMutability": "view",
      "type": "function"
    },
    {
      "inputs": [
        {
          "internalType": "uint256",
          "name": "id",
          "type": "uint256"
        },
        {
          "internalType": "uint256",
          "name": "reservationId",
          "type": "uint256"
        },
        {
          "internalType": "uint256",
          "name": "date",
          "type": "uint256"
        }
      ],
      "name": "refundReservation",
      "outputs": [],
      "stateMutability": "nonpayable",
      "type": "function"
    },
    {
      "inputs": [],
      "name": "renounceOwnership",
      "outputs": [],
      "stateMutability": "nonpayable",
      "type": "function"
    },
    {
      "inputs": [
        {
          "internalType": "uint256",
          "name": "id",
          "type": "uint256"
        },
        {
          "internalType": "uint256[]",
          "name": "dates",
          "type": "uint256[]"
        }
      ],
      "name": "reservateApartment",
      "outputs": [],
      "stateMutability": "payable",
      "type": "function"
    },
    {
      "inputs": [],
      "name": "securityFee",
      "outputs": [
        {
          "internalType": "uint256",
          "name": "",
          "type": "uint256"
        }
      ],
      "stateMutability": "view",
      "type": "function"
    },
    {
      "inputs": [],
      "name": "taxPercent",
      "outputs": [
        {
          "internalType": "uint256",
          "name": "",
          "type": "uint256"
        }
      ],
      "stateMutability": "view",
      "type": "function"
    },
    {
      "inputs": [
        {
          "internalType": "uint256",
          "name": "appartmentId",
          "type": "uint256"
        }
      ],
      "name": "tenantBooked",
      "outputs": [
        {
          "internalType": "bool",
          "name": "",
          "type": "bool"
        }
      ],
      "stateMutability": "view",
      "type": "function"
    },
    {
      "inputs": [
        {
          "internalType": "address",
          "name": "newOwner",
          "type": "address"
        }
      ],
      "name": "transferOwnership",
      "outputs": [],
      "stateMutability": "nonpayable",
      "type": "function"
    },
    {
      "inputs": [
        {
          "internalType": "uint256",
          "name": "id",
          "type": "uint256"
        },
        {
          "internalType": "string",
          "name": "title",
          "type": "string"
        },
        {
          "internalType": "string",
          "name": "description",
          "type": "string"
        },
        {
          "internalType": "string",
          "name": "images",
          "type": "string"
        },
        {
          "internalType": "string",
          "name": "category",
          "type": "string"
        },
        {
          "internalType": "string",
          "name": "location",
          "type": "string"
        },
        {
          "internalType": "uint256",
          "name": "bathrooms",
          "type": "uint256"
        },
        {
          "internalType": "uint256",
          "name": "guests",
          "type": "uint256"
        },
        {
          "internalType": "uint256",
          "name": "rooms",
          "type": "uint256"
        },
        {
          "internalType": "uint256",
          "name": "price",
          "type": "uint256"
        }
      ],
      "name": "updateAppartment",
      "outputs": [],
      "stateMutability": "nonpayable",
      "type": "function"
    },
    {
      "inputs": [
        {
          "internalType": "uint256",
          "name": "newFee",
          "type": "uint256"
        }
      ],
      "name": "updateSecurityFee",
      "outputs": [],
      "stateMutability": "nonpayable",
      "type": "function"
    },
    {
      "inputs": [
        {
          "internalType": "uint256",
          "name": "newTaxPercent",
          "type": "uint256"
        }
      ],
      "name": "updateTaxPercent",
      "outputs": [],
      "stateMutability": "nonpayable",
      "type": "function"
    }
  ],
  "bytecode": "0x60806040523480156200001157600080fd5b506040516200379d3803806200379d8339810160408190526200003491620000a2565b6200003f3362000052565b60018055600491909155600355620000c7565b600080546001600160a01b038381166001600160a01b0319831681178455604051919092169283917f8be0079c531659141344cd1fd0a4f28419497f9722a3daafe3b4186f6b6457e09190a35050565b60008060408385031215620000b657600080fd5b505080516020909101519092909150565b6136c680620000d76000396000f3fe6080604052600436106101405760003560e01c8063a4e436bc116100b6578063d6b6d0b51161006f578063d6b6d0b5146103aa578063db2f80b7146103d7578063dec30d3914610404578063eb46144514610424578063f2fde38b14610444578063f6ab7e3d1461046457600080fd5b8063a4e436bc146102e5578063accba493146102f8578063af11cd9a14610325578063b1c9809914610345578063c4452e0614610367578063d68e13021461039457600080fd5b806378419f611161010857806378419f61146101e557806388b1973a146102055780638da5cb5b146102255780639bd213701461024d5780639d4a22551461026d5780639f31a2be1461029a57600080fd5b8063010b58ee146101455780635bb0c5d6146101675780636159114914610187578063715018a6146101a75780637541f41c146101bc575b600080fd5b34801561015157600080fd5b50610165610160366004612db9565b610484565b005b34801561017357600080fd5b50610165610182366004612e92565b6105ea565b34801561019357600080fd5b506101656101a2366004612ed9565b6107de565b3480156101b357600080fd5b5061016561082e565b3480156101c857600080fd5b506101d260045481565b6040519081526020015b60405180910390f35b3480156101f157600080fd5b50610165610200366004612db9565b610842565b34801561021157600080fd5b50610165610220366004612ef2565b6109fa565b34801561023157600080fd5b506000546040516001600160a01b0390911681526020016101dc565b34801561025957600080fd5b50610165610268366004612f1e565b610d66565b34801561027957600080fd5b5061028d610288366004612ed9565b6111dc565b6040516101dc9190613062565b3480156102a657600080fd5b506102d56102b5366004612ed9565b336000908152600b60209081526040808320938352929052205460ff1690565b60405190151581526020016101dc565b6101656102f3366004613100565b611317565b34801561030457600080fd5b50610318610313366004612db9565b6115cc565b6040516101dc91906131f6565b34801561033157600080fd5b50610165610340366004613204565b611666565b34801561035157600080fd5b5061035a611f43565b6040516101dc9190613416565b34801561037357600080fd5b50610387610382366004612ed9565b6123db565b6040516101dc9190613478565b3480156103a057600080fd5b506101d260035481565b3480156103b657600080fd5b506103ca6103c5366004612ed9565b612767565b6040516101dc9190613492565b3480156103e357600080fd5b506103f76103f2366004612ed9565b612818565b6040516101dc91906134e0565b34801561041057600080fd5b5061016561041f366004612ed9565b61287a565b34801561043057600080fd5b5061016561043f366004612ed9565b612969565b34801561045057600080fd5b5061016561045f366004613518565b612976565b34801561047057600080fd5b506102d561047f366004612db9565b6129ef565b6000828152600560205260409020600a01546001600160a01b031633146104e85760405162461bcd60e51b8152602060048201526013602482015272556e617574686f72697a656420656e7469747960681b60448201526064015b60405180910390fd5b600082815260066020526040902080548290811061050857610508613541565b600091825260209091206004600590920201015460ff161561053c5760405162461bcd60e51b81526004016104df90613557565b600082815260066020526040812080548390811061055c5761055c613541565b9060005260206000209060050201600301549050600060646004548361058291906135b4565b61058c91906135d3565b6000858152600560205260409020600a01549091506105bd906001600160a01b03166105b883856135f5565b612a34565b6105d86105d26000546001600160a01b031690565b82612a34565b6105e433600354612a34565b50505050565b60008281526008602052604090205460ff166106485760405162461bcd60e51b815260206004820152601860248201527f4170706172746d656e74206e6f7420617661696c61626c65000000000000000060448201526064016104df565b336000908152600b6020908152604080832085845290915290205460ff166106b25760405162461bcd60e51b815260206004820152601860248201527f426f6f6b206669727374206265666f726520726576696577000000000000000060448201526064016104df565b60008151116107035760405162461bcd60e51b815260206004820152601b60248201527f52657669657720746578742063616e6e6f7420626520656d707479000000000060448201526064016104df565b61073e6040518060a001604052806000815260200160008152602001606081526020016000815260200160006001600160a01b031681525090565b6000838152600760208181526040808420805480875286840189815292870188815242606089015233608089015294845260018082018355918652948390208651600590960201948555905190840155905180518493926107a6926002850192910190612c58565b5060608201516003820155608090910151600490910180546001600160a01b0319166001600160a01b03909216919091179055505050565b6107e6612a94565b600081116107f357600080fd5b60038190556040518181527f3790aeee57809af98fad1b89b9266c7934e03ed46702b541f2fef6f1e89d68279060200160405180910390a150565b610836612a94565b6108406000612aee565b565b600082815260066020526040902080548290811061086257610862613541565b60009182526020909120600590910201600101546001600160a01b031633146108c45760405162461bcd60e51b8152602060048201526014602482015273556e617574686f72697a65642074656e616e742160601b60448201526064016104df565b60008281526006602052604090208054829081106108e4576108e4613541565b600091825260209091206004600590920201015460ff16156109185760405162461bcd60e51b81526004016104df90613557565b60008281526006602052604090208054600191908390811061093c5761093c613541565b60009182526020808320600592909202909101600401805460ff19169315159390931790925583815260069091526040812080548390811061098057610980613541565b906000526020600020906005020160030154905060006064600454836109a691906135b4565b6109b091906135d3565b336000908152600b602090815260408083208884528252808320805460ff1916600117905560059091529020600a01549091506105bd906001600160a01b03166105b883856135f5565b610a02612b3e565b6000838152600660205260409020805483908110610a2257610a22613541565b600091825260209091206004600590920201015460ff1615610a565760405162461bcd60e51b81526004016104df90613557565b6000546001600160a01b03163314610b88576000838152600660205260409020805483908110610a8857610a88613541565b60009182526020909120600590910201600101546001600160a01b03163314610aea5760405162461bcd60e51b8152602060048201526014602482015273556e617574686f72697a65642074656e616e742160601b60448201526064016104df565b610af2612b98565b6000848152600660205260409020805484908110610b1257610b12613541565b90600052602060002090600502016002015411610b885760405162461bcd60e51b815260206004820152602e60248201527f43616e206e6f206c6f6e67657220726566756e642c207265736572766174696f60448201526d1b8819185d19481cdd185c9d195960921b60648201526084016104df565b600083815260066020526040902080546001919084908110610bac57610bac613541565b6000918252602080832060046005909302019190910180549315156101000261ff001990941693909317909255848152600a825260408082208483528352808220805460ff19169055858252600990925290812054610c0d906001906135f5565b60008581526009602052604081208054929350909183908110610c3257610c32613541565b9060005260206000200154905080600960008781526020019081526020016000208581548110610c6457610c64613541565b906000526020600020018190555060096000868152602001908152602001600020805480610c9457610c9461360c565b600190038181906000526020600020016000905590556000600660008781526020019081526020016000208581548110610cd057610cd0613541565b906000526020600020906005020160030154905060006064600454600354610cf891906135b4565b610d0291906135d3565b6000888152600560205260409020600a0154600354919250610d35916001600160a01b03909116906105b89084906135f5565b610d4a6105d26000546001600160a01b031690565b610d543383612a34565b50505050610d6160018055565b505050565b6000895111610daf5760405162461bcd60e51b81526020600482015260156024820152747469746c652063616e6e6f7420626520656d70747960581b60448201526064016104df565b6000885111610e005760405162461bcd60e51b815260206004820152601b60248201527f4465736372697074696f6e2063616e6e6f7420626520656d707479000000000060448201526064016104df565b6000875111610e4a5760405162461bcd60e51b8152602060048201526016602482015275496d616765732063616e6e6f7420626520656d70747960501b60448201526064016104df565b6000865111610e965760405162461bcd60e51b815260206004820152601860248201527763617465676f72792063616e6e6f7420626520656d70747960401b60448201526064016104df565b6000855111610ee25760405162461bcd60e51b81526020600482015260186024820152776c6f636174696f6e2063616e6e6f7420626520656d70747960401b60448201526064016104df565b60008411610f2d5760405162461bcd60e51b815260206004820152601860248201527762617468726f6f6d732063616e6e6f74206265207a65726f60401b60448201526064016104df565b60008311610f755760405162461bcd60e51b81526020600482015260156024820152746775657374732063616e6e6f74206265207a65726f60581b60448201526064016104df565b60008211610fbc5760405162461bcd60e51b8152602060048201526014602482015273526f6f6d732063616e6e6f74206265207a65726f60601b60448201526064016104df565b600081116110035760405162461bcd60e51b815260206004820152601460248201527350726963652063616e6e6f74206265207a65726f60601b60448201526064016104df565b611011600280546001019055565b611019612cdc565b6002805480835260208084018d815260408086018e9052606086018d9052608086018c905260a086018b905260c086018a905260e08601899052610100860188905261012086018790523361014087015260016101a08701819052426101c0880152600094855260088452818520805460ff1916821790559454845260058352909220845181559151805185946110b593908501920190612c58565b50604082015180516110d1916002840191602090910190612c58565b50606082015180516110ed916003840191602090910190612c58565b5060808201518051611109916004840191602090910190612c58565b5060a08201518051611125916005840191602090910190612c58565b5060c0820151600682015560e0820151600782015561010082015160088201556101208201516009820155610140820151600a820180546101608501516101808601516101a08701511515600160b01b0260ff60b01b19911515600160a81b029190911661ffff60a81b19921515600160a01b026001600160a81b03199094166001600160a01b03909616959095179290921716929092179190911790556101c090910151600b9091015550505050505050505050565b606060076000838152602001908152602001600020805480602002602001604051908101604052809291908181526020016000905b8282101561130c57838290600052602060002090600502016040518060a0016040529081600082015481526020016001820154815260200160028201805461125890613622565b80601f016020809104026020016040519081016040528092919081815260200182805461128490613622565b80156112d15780601f106112a6576101008083540402835291602001916112d1565b820191906000526020600020905b8154815290600101906020018083116112b457829003601f168201915b505050918352505060038201546020808301919091526004909201546001600160a01b03166040909101529082526001929092019101611211565b505050509050919050565b60008281526008602052604090205460ff1661136c5760405162461bcd60e51b815260206004820152601460248201527341706172746d656e74206e6f7420666f756e642160601b60448201526064016104df565b600354815160008481526005602052604090206009015461138d91906135b4565b611397919061365d565b3410156113db5760405162461bcd60e51b8152602060048201526012602482015271496e73756666696369656e742066756e642160701b60448201526064016104df565b6113e58282612bb3565b6114315760405162461bcd60e51b815260206004820152601e60248201527f426f6f6b6564206461746520666f756e6420616d6f6e6720646174657321000060448201526064016104df565b60005b8151811015610d6157611445612d61565b60008481526006602090815260409091205482523390820152825183908390811061147257611472613541565b6020908102919091018101516040808401918252600087815260058085528282206009015460608701908152898352600686528383208054600181810183559185528785208951919094029093019283558787015183820180546001600160a01b039092166001600160a01b03199092169190911790559451600283015551600382015560808601516004909101805460a088015115156101000261ff00199315159390931661ffff1990911617919091179055878152600a909352822085519192909186908690811061154857611548613541565b6020026020010151815260200190815260200160002060006101000a81548160ff0219169083151502179055506009600085815260200190815260200160002083838151811061159a5761159a613541565b6020908102919091018101518254600181018455600093845291909220015550806115c481613675565b915050611434565b6115d4612d61565b60008381526006602052604090208054839081106115f4576115f4613541565b60009182526020918290206040805160c08101825260059093029091018054835260018101546001600160a01b0316938301939093526002830154908201526003820154606082015260049091015460ff8082161515608084015261010090910416151560a082015290505b92915050565b60008a81526008602052604090205460ff1615156001146116c05760405162461bcd60e51b8152602060048201526014602482015273105c1c185c9d1b595b9d081b9bdd08199bdd5b9960621b60448201526064016104df565b60008a8152600560205260409020600a01546001600160a01b031633146117345760405162461bcd60e51b815260206004820152602260248201527f556e617574686f72697a656420706572736f6e6e656c2c206f776e6572206f6e6044820152616c7960f01b60648201526084016104df565b600089511161177d5760405162461bcd60e51b81526020600482015260156024820152747469746c652063616e6e6f7420626520656d70747960581b60448201526064016104df565b60008851116117ce5760405162461bcd60e51b815260206004820152601b60248201527f4465736372697074696f6e2063616e6e6f7420626520656d707479000000000060448201526064016104df565b60008751116118185760405162461bcd60e51b8152602060048201526016602482015275496d616765732063616e6e6f7420626520656d70747960501b60448201526064016104df565b60008651116118645760405162461bcd60e51b815260206004820152601860248201527763617465676f72792063616e6e6f7420626520656d70747960401b60448201526064016104df565b60008551116118b05760405162461bcd60e51b81526020600482015260186024820152776c6f636174696f6e2063616e6e6f7420626520656d70747960401b60448201526064016104df565b600084116118fb5760405162461bcd60e51b815260206004820152601860248201527762617468726f6f6d732063616e6e6f74206265207a65726f60401b60448201526064016104df565b600083116119435760405162461bcd60e51b81526020600482015260156024820152746775657374732063616e6e6f74206265207a65726f60581b60448201526064016104df565b6000821161198a5760405162461bcd60e51b8152602060048201526014602482015273526f6f6d732063616e6e6f74206265207a65726f60601b60448201526064016104df565b600081116119d15760405162461bcd60e51b815260206004820152601460248201527350726963652063616e6e6f74206265207a65726f60601b60448201526064016104df565b6000600560008c8152602001908152602001600020604051806101e001604052908160008201548152602001600182018054611a0c90613622565b80601f0160208091040260200160405190810160405280929190818152602001828054611a3890613622565b8015611a855780601f10611a5a57610100808354040283529160200191611a85565b820191906000526020600020905b815481529060010190602001808311611a6857829003601f168201915b50505050508152602001600282018054611a9e90613622565b80601f0160208091040260200160405190810160405280929190818152602001828054611aca90613622565b8015611b175780601f10611aec57610100808354040283529160200191611b17565b820191906000526020600020905b815481529060010190602001808311611afa57829003601f168201915b50505050508152602001600382018054611b3090613622565b80601f0160208091040260200160405190810160405280929190818152602001828054611b5c90613622565b8015611ba95780601f10611b7e57610100808354040283529160200191611ba9565b820191906000526020600020905b815481529060010190602001808311611b8c57829003601f168201915b50505050508152602001600482018054611bc290613622565b80601f0160208091040260200160405190810160405280929190818152602001828054611bee90613622565b8015611c3b5780601f10611c1057610100808354040283529160200191611c3b565b820191906000526020600020905b815481529060010190602001808311611c1e57829003601f168201915b50505050508152602001600582018054611c5490613622565b80601f0160208091040260200160405190810160405280929190818152602001828054611c8090613622565b8015611ccd5780601f10611ca257610100808354040283529160200191611ccd565b820191906000526020600020905b815481529060010190602001808311611cb057829003601f168201915b5050505050815260200160068201548152602001600782015481526020016008820154815260200160098201548152602001600a820160009054906101000a90046001600160a01b03166001600160a01b03166001600160a01b03168152602001600a820160149054906101000a900460ff16151515158152602001600a820160159054906101000a900460ff16151515158152602001600a820160169054906101000a900460ff16151515158152602001600b820154815250509050898160200181905250888160400181905250878160600181905250868160800181905250858160a00181905250848160c0018181525050838160e00181815250508281610100018181525050818161012001818152505080600560008d8152602001908152602001600020600082015181600001556020820151816001019080519060200190611e1b929190612c58565b5060408201518051611e37916002840191602090910190612c58565b5060608201518051611e53916003840191602090910190612c58565b5060808201518051611e6f916004840191602090910190612c58565b5060a08201518051611e8b916005840191602090910190612c58565b5060c0820151600682015560e0820151600782015561010082015160088201556101208201516009820155610140820151600a820180546101608501516101808601516101a08701511515600160b01b0260ff60b01b19911515600160a81b029190911661ffff60a81b19921515600160a01b026001600160a81b03199094166001600160a01b03909616959095179290921716929092179190911790556101c090910151600b909101555050505050505050505050565b6060600060015b6002548111611f93576000818152600560205260409020600a0154600160a81b900460ff16611f815781611f7d81613675565b9250505b80611f8b81613675565b915050611f4a565b508067ffffffffffffffff811115611fad57611fad612ddb565b604051908082528060200260200182016040528015611fe657816020015b611fd3612cdc565b815260200190600190039081611fcb5790505b509150600060015b60025481116123d5576000818152600560205260409020600a0154600160a81b900460ff166123c35760056000828152602001908152602001600020604051806101e00160405290816000820154815260200160018201805461205090613622565b80601f016020809104026020016040519081016040528092919081815260200182805461207c90613622565b80156120c95780601f1061209e576101008083540402835291602001916120c9565b820191906000526020600020905b8154815290600101906020018083116120ac57829003601f168201915b505050505081526020016002820180546120e290613622565b80601f016020809104026020016040519081016040528092919081815260200182805461210e90613622565b801561215b5780601f106121305761010080835404028352916020019161215b565b820191906000526020600020905b81548152906001019060200180831161213e57829003601f168201915b5050505050815260200160038201805461217490613622565b80601f01602080910402602001604051908101604052809291908181526020018280546121a090613622565b80156121ed5780601f106121c2576101008083540402835291602001916121ed565b820191906000526020600020905b8154815290600101906020018083116121d057829003601f168201915b5050505050815260200160048201805461220690613622565b80601f016020809104026020016040519081016040528092919081815260200182805461223290613622565b801561227f5780601f106122545761010080835404028352916020019161227f565b820191906000526020600020905b81548152906001019060200180831161226257829003601f168201915b5050505050815260200160058201805461229890613622565b80601f01602080910402602001604051908101604052809291908181526020018280546122c490613622565b80156123115780601f106122e657610100808354040283529160200191612311565b820191906000526020600020905b8154815290600101906020018083116122f457829003601f168201915b505050918352505060068201546020820152600782015460408201526008820154606082015260098201546080820152600a8201546001600160a01b03811660a083015260ff600160a01b82048116151560c0840152600160a81b82048116151560e0840152600160b01b909104161515610100820152600b909101546101209091015284518590849081106123a9576123a9613541565b602002602001018190525081806123bf90613675565b9250505b806123cd81613675565b915050611fee565b50505090565b6123e3612cdc565b60056000838152602001908152602001600020604051806101e00160405290816000820154815260200160018201805461241c90613622565b80601f016020809104026020016040519081016040528092919081815260200182805461244890613622565b80156124955780601f1061246a57610100808354040283529160200191612495565b820191906000526020600020905b81548152906001019060200180831161247857829003601f168201915b505050505081526020016002820180546124ae90613622565b80601f01602080910402602001604051908101604052809291908181526020018280546124da90613622565b80156125275780601f106124fc57610100808354040283529160200191612527565b820191906000526020600020905b81548152906001019060200180831161250a57829003601f168201915b5050505050815260200160038201805461254090613622565b80601f016020809104026020016040519081016040528092919081815260200182805461256c90613622565b80156125b95780601f1061258e576101008083540402835291602001916125b9565b820191906000526020600020905b81548152906001019060200180831161259c57829003601f168201915b505050505081526020016004820180546125d290613622565b80601f01602080910402602001604051908101604052809291908181526020018280546125fe90613622565b801561264b5780601f106126205761010080835404028352916020019161264b565b820191906000526020600020905b81548152906001019060200180831161262e57829003601f168201915b5050505050815260200160058201805461266490613622565b80601f016020809104026020016040519081016040528092919081815260200182805461269090613622565b80156126dd5780601f106126b2576101008083540402835291602001916126dd565b820191906000526020600020905b8154815290600101906020018083116126c057829003601f168201915b505050918352505060068201546020820152600782015460408201526008820154606082015260098201546080820152600a8201546001600160a01b03811660a083015260ff600160a01b82048116151560c0840152600160a81b82048116151560e0840152600160b01b909104161515610100820152600b909101546101209091015292915050565b606060066000838152602001908152602001600020805480602002602001604051908101604052809291908181526020016000905b8282101561130c5760008481526020908190206040805160c08101825260058602909201805483526001808201546001600160a01b031684860152600282015492840192909252600381015460608401526004015460ff8082161515608085015261010090910416151560a0830152908352909201910161279c565b60008181526009602090815260409182902080548351818402810184019094528084526060939283018282801561286e57602002820191906000526020600020905b81548152602001906001019080831161285a575b50505050509050919050565b60008181526008602052604090205460ff1615156001146128d45760405162461bcd60e51b8152602060048201526014602482015273105c1c185c9d1b595b9d081b9bdd08199bdd5b9960621b60448201526064016104df565b6000818152600560205260409020600a01546001600160a01b031633146129335760405162461bcd60e51b8152602060048201526013602482015272556e617574686f72697a656420656e7469747960681b60448201526064016104df565b6000908152600860209081526040808320805460ff1916905560059091529020600a01805460ff60a81b1916600160a81b179055565b612971612a94565b600455565b61297e612a94565b6001600160a01b0381166129e35760405162461bcd60e51b815260206004820152602660248201527f4f776e61626c653a206e6577206f776e657220697320746865207a65726f206160448201526564647265737360d01b60648201526084016104df565b6129ec81612aee565b50565b60006129f9612b98565b6000848152600660205260409020805484908110612a1957612a19613541565b90600052602060002090600502016002015410905092915050565b6000826001600160a01b03168260405160006040518083038185875af1925050503d8060008114612a81576040519150601f19603f3d011682016040523d82523d6000602084013e612a86565b606091505b5050905080610d6157600080fd5b6000546001600160a01b031633146108405760405162461bcd60e51b815260206004820181905260248201527f4f776e61626c653a2063616c6c6572206973206e6f7420746865206f776e657260448201526064016104df565b600080546001600160a01b038381166001600160a01b0319831681178455604051919092169283917f8be0079c531659141344cd1fd0a4f28419497f9722a3daafe3b4186f6b6457e09190a35050565b60026001541415612b915760405162461bcd60e51b815260206004820152601f60248201527f5265656e7472616e637947756172643a207265656e7472616e742063616c6c0060448201526064016104df565b6002600155565b600080612ba7426103e86135b4565b611660906103e861365d565b60006001815b8351811015612c505760005b600086815260096020526040902054811015612c3d576000868152600960205260409020805482908110612bfb57612bfb613541565b9060005260206000200154858381518110612c1857612c18613541565b60200260200101511415612c2b57600092505b80612c3581613675565b915050612bc5565b5080612c4881613675565b915050612bb9565b509392505050565b828054612c6490613622565b90600052602060002090601f016020900481019282612c865760008555612ccc565b82601f10612c9f57805160ff1916838001178555612ccc565b82800160010185558215612ccc579182015b82811115612ccc578251825591602001919060010190612cb1565b50612cd8929150612da4565b5090565b604051806101e001604052806000815260200160608152602001606081526020016060815260200160608152602001606081526020016000815260200160008152602001600081526020016000815260200160006001600160a01b03168152602001600015158152602001600015158152602001600015158152602001600081525090565b6040518060c001604052806000815260200160006001600160a01b0316815260200160008152602001600081526020016000151581526020016000151581525090565b5b80821115612cd85760008155600101612da5565b60008060408385031215612dcc57600080fd5b50508035926020909101359150565b634e487b7160e01b600052604160045260246000fd5b604051601f8201601f1916810167ffffffffffffffff81118282101715612e1a57612e1a612ddb565b604052919050565b600082601f830112612e3357600080fd5b813567ffffffffffffffff811115612e4d57612e4d612ddb565b612e60601f8201601f1916602001612df1565b818152846020838601011115612e7557600080fd5b816020850160208301376000918101602001919091529392505050565b60008060408385031215612ea557600080fd5b82359150602083013567ffffffffffffffff811115612ec357600080fd5b612ecf85828601612e22565b9150509250929050565b600060208284031215612eeb57600080fd5b5035919050565b600080600060608486031215612f0757600080fd5b505081359360208301359350604090920135919050565b60008060008060008060008060006101208a8c031215612f3d57600080fd5b893567ffffffffffffffff80821115612f5557600080fd5b612f618d838e01612e22565b9a5060208c0135915080821115612f7757600080fd5b612f838d838e01612e22565b995060408c0135915080821115612f9957600080fd5b612fa58d838e01612e22565b985060608c0135915080821115612fbb57600080fd5b612fc78d838e01612e22565b975060808c0135915080821115612fdd57600080fd5b50612fea8c828d01612e22565b999c989b50969995989760a0870135975060c08701359660e081013596506101000135945092505050565b6000815180845260005b8181101561303b5760208185018101518683018201520161301f565b8181111561304d576000602083870101525b50601f01601f19169290920160200192915050565b60006020808301818452808551808352604092508286019150828160051b87010184880160005b838110156130f257603f19898403018552815160a08151855288820151898601528782015181898701526130bf82870182613015565b606084810151908801526080938401516001600160a01b0316939096019290925250509386019390860190600101613089565b509098975050505050505050565b6000806040838503121561311357600080fd5b8235915060208084013567ffffffffffffffff8082111561313357600080fd5b818601915086601f83011261314757600080fd5b81358181111561315957613159612ddb565b8060051b915061316a848301612df1565b818152918301840191848101908984111561318457600080fd5b938501935b838510156131a257843582529385019390850190613189565b8096505050505050509250929050565b805182526020808201516001600160a01b031690830152604080820151908301526060808201519083015260808082015115159083015260a0908101511515910152565b60c0810161166082846131b2565b6000806000806000806000806000806101408b8d03121561322457600080fd5b8a35995060208b013567ffffffffffffffff8082111561324357600080fd5b61324f8e838f01612e22565b9a5060408d013591508082111561326557600080fd5b6132718e838f01612e22565b995060608d013591508082111561328757600080fd5b6132938e838f01612e22565b985060808d01359150808211156132a957600080fd5b6132b58e838f01612e22565b975060a08d01359150808211156132cb57600080fd5b506132d88d828e01612e22565b95505060c08b0135935060e08b013592506101008b013591506101208b013590509295989b9194979a5092959850565b60006101e082518452602083015181602086015261332882860182613015565b915050604083015184820360408601526133428282613015565b9150506060830151848203606086015261335c8282613015565b915050608083015184820360808601526133768282613015565b91505060a083015184820360a08601526133908282613015565b91505060c083015160c085015260e083015160e0850152610100808401518186015250610120808401518186015250610140808401516133da828701826001600160a01b03169052565b505061016083810151151590850152610180808401511515908501526101a0808401511515908501526101c09283015192909301919091525090565b6000602080830181845280855180835260408601915060408160051b870101925083870160005b8281101561346b57603f19888603018452613459858351613308565b9450928501929085019060010161343d565b5092979650505050505050565b60208152600061348b6020830184613308565b9392505050565b6020808252825182820181905260009190848201906040850190845b818110156134d4576134c18385516131b2565b9284019260c092909201916001016134ae565b50909695505050505050565b6020808252825182820181905260009190848201906040850190845b818110156134d4578351835292840192918401916001016134fc565b60006020828403121561352a57600080fd5b81356001600160a01b038116811461348b57600080fd5b634e487b7160e01b600052603260045260246000fd5b60208082526027908201527f41706172746d656e7420616c726561647920636865636b6564206f6e207468696040820152667320646174652160c81b606082015260800190565b634e487b7160e01b600052601160045260246000fd5b60008160001904831182151516156135ce576135ce61359e565b500290565b6000826135f057634e487b7160e01b600052601260045260246000fd5b500490565b6000828210156136075761360761359e565b500390565b634e487b7160e01b600052603160045260246000fd5b600181811c9082168061363657607f821691505b6020821081141561365757634e487b7160e01b600052602260045260246000fd5b50919050565b600082198211156136705761367061359e565b500190565b60006000198214156136895761368961359e565b506001019056fea264697066735822122080745eb136c95ef7664b3a682e467c074a42b0f61941f57d1fc460a6de2b98b564736f6c634300080b0033",
  "linkReferences": {},
  "deployedLinkReferences": {}
}