{
  "_format": "hh-sol-artifact-1",
  "contractName": "Roomrental",
  "sourceName": "src/contracts/roomrental.sol",
  "abi": [
    {
      "inputs": [
        {
          "internalType": "uint256",
          "name": "_taxPercent",
          "type": "uint256"
        },
        {
          "internalType": "uint256",
          "name": "_securityFee",
          "type": "uint256"
        }
      ],
      "stateMutability": "nonpayable",
      "type": "constructor"
    },
    {
      "anonymous": false,
      "inputs": [
        {
          "indexed": true,
          "internalType": "address",
          "name": "previousOwner",
          "type": "address"
        },
        {
          "indexed": true,
          "internalType": "address",
          "name": "newOwner",
          "type": "address"
        }
      ],
      "name": "OwnershipTransferred",
      "type": "event"
    },
    {
      "anonymous": false,
      "inputs": [
        {
          "indexed": false,
          "internalType": "uint256",
          "name": "newFee",
          "type": "uint256"
        }
      ],
      "name": "SecurityFeeUpdated",
      "type": "event"
    },
    {
      "inputs": [
        {
          "internalType": "uint256",
          "name": "appartmentId",
          "type": "uint256"
        },
        {
          "internalType": "string",
          "name": "reviewText",
          "type": "string"
        }
      ],
      "name": "addReview",
      "outputs": [],
      "stateMutability": "nonpayable",
      "type": "function"
    },
    {
      "inputs": [
        {
          "internalType": "uint256",
          "name": "id",
          "type": "uint256"
        },
        {
          "internalType": "uint256",
          "name": "reservationId",
          "type": "uint256"
        }
      ],
      "name": "checkInApartment",
      "outputs": [],
      "stateMutability": "nonpayable",
      "type": "function"
    },
    {
      "inputs": [
        {
          "internalType": "uint256",
          "name": "id",
          "type": "uint256"
        },
        {
          "internalType": "uint256",
          "name": "reservationId",
          "type": "uint256"
        }
      ],
      "name": "claimFunds",
      "outputs": [],
      "stateMutability": "nonpayable",
      "type": "function"
    },
    {
      "inputs": [
        {
          "internalType": "string",
          "name": "title",
          "type": "string"
        },
        {
          "internalType": "string",
          "name": "description",
          "type": "string"
        },
        {
          "internalType": "string",
          "name": "images",
          "type": "string"
        },
        {
          "internalType": "string",
          "name": "category",
          "type": "string"
        },
        {
          "internalType": "string",
          "name": "location",
          "type": "string"
        },
        {
          "internalType": "uint256",
          "name": "bathrooms",
          "type": "uint256"
        },
        {
          "internalType": "uint256",
          "name": "guests",
          "type": "uint256"
        },
        {
          "internalType": "uint256",
          "name": "rooms",
          "type": "uint256"
        },
        {
          "internalType": "uint256",
          "name": "price",
          "type": "uint256"
        }
      ],
      "name": "createAppartment",
      "outputs": [],
      "stateMutability": "nonpayable",
      "type": "function"
    },
    {
      "inputs": [
        {
          "internalType": "uint256",
          "name": "id",
          "type": "uint256"
        }
      ],
      "name": "deleteAppartment",
      "outputs": [],
      "stateMutability": "nonpayable",
      "type": "function"
    },
    {
      "inputs": [
        {
          "internalType": "uint256",
          "name": "id",
          "type": "uint256"
        },
        {
          "internalType": "bool",
          "name": "hasFavorited",
          "type": "bool"
        }
      ],
      "name": "favoriteApartment",
      "outputs": [],
      "stateMutability": "nonpayable",
      "type": "function"
    },
    {
      "inputs": [
        {
          "internalType": "uint256",
          "name": "id",
          "type": "uint256"
        }
      ],
      "name": "getApartment",
      "outputs": [
        {
          "components": [
            {
              "internalType": "uint256",
              "name": "id",
              "type": "uint256"
            },
            {
              "internalType": "string",
              "name": "title",
              "type": "string"
            },
            {
              "internalType": "string",
              "name": "description",
              "type": "string"
            },
            {
              "internalType": "string",
              "name": "images",
              "type": "string"
            },
            {
              "internalType": "string",
              "name": "category",
              "type": "string"
            },
            {
              "internalType": "string",
              "name": "location",
              "type": "string"
            },
            {
              "internalType": "uint256",
              "name": "bathrooms",
              "type": "uint256"
            },
            {
              "internalType": "uint256",
              "name": "guests",
              "type": "uint256"
            },
            {
              "internalType": "uint256",
              "name": "rooms",
              "type": "uint256"
            },
            {
              "internalType": "uint256",
              "name": "price",
              "type": "uint256"
            },
            {
              "internalType": "address",
              "name": "owner",
              "type": "address"
            },
            {
              "internalType": "bool",
              "name": "reservated",
              "type": "bool"
            },
            {
              "internalType": "bool",
              "name": "deleted",
              "type": "bool"
            },
            {
              "internalType": "bool",
              "name": "availablity",
              "type": "bool"
            },
            {
              "internalType": "uint256",
              "name": "timestamp",
              "type": "uint256"
            }
          ],
          "internalType": "struct Roomrental.ApartmentStruct",
          "name": "",
          "type": "tuple"
        }
      ],
      "stateMutability": "view",
      "type": "function"
    },
    {
      "inputs": [],
      "name": "getApartments",
      "outputs": [
        {
          "components": [
            {
              "internalType": "uint256",
              "name": "id",
              "type": "uint256"
            },
            {
              "internalType": "string",
              "name": "title",
              "type": "string"
            },
            {
              "internalType": "string",
              "name": "description",
              "type": "string"
            },
            {
              "internalType": "string",
              "name": "images",
              "type": "string"
            },
            {
              "internalType": "string",
              "name": "category",
              "type": "string"
            },
            {
              "internalType": "string",
              "name": "location",
              "type": "string"
            },
            {
              "internalType": "uint256",
              "name": "bathrooms",
              "type": "uint256"
            },
            {
              "internalType": "uint256",
              "name": "guests",
              "type": "uint256"
            },
            {
              "internalType": "uint256",
              "name": "rooms",
              "type": "uint256"
            },
            {
              "internalType": "uint256",
              "name": "price",
              "type": "uint256"
            },
            {
              "internalType": "address",
              "name": "owner",
              "type": "address"
            },
            {
              "internalType": "bool",
              "name": "reservated",
              "type": "bool"
            },
            {
              "internalType": "bool",
              "name": "deleted",
              "type": "bool"
            },
            {
              "internalType": "bool",
              "name": "availablity",
              "type": "bool"
            },
            {
              "internalType": "uint256",
              "name": "timestamp",
              "type": "uint256"
            }
          ],
          "internalType": "struct Roomrental.ApartmentStruct[]",
          "name": "Apartments",
          "type": "tuple[]"
        }
      ],
      "stateMutability": "view",
      "type": "function"
    },
    {
      "inputs": [
        {
          "internalType": "uint256",
          "name": "id",
          "type": "uint256"
        }
      ],
      "name": "getFavorites",
      "outputs": [
        {
          "components": [
            {
              "internalType": "uint256",
              "name": "id",
              "type": "uint256"
            },
            {
              "internalType": "uint256",
              "name": "appartmentId",
              "type": "uint256"
            },
            {
              "internalType": "address",
              "name": "guest",
              "type": "address"
            },
            {
              "internalType": "bool",
              "name": "hasfavorited",
              "type": "bool"
            }
          ],
          "internalType": "struct Roomrental.FavoriteStruct",
          "name": "",
          "type": "tuple"
        }
      ],
      "stateMutability": "view",
      "type": "function"
    },
    {
      "inputs": [
        {
          "internalType": "uint256",
          "name": "id",
          "type": "uint256"
        },
        {
          "internalType": "uint256",
          "name": "reservationId",
          "type": "uint256"
        }
      ],
      "name": "getReservation",
      "outputs": [
        {
          "components": [
            {
              "internalType": "uint256",
              "name": "id",
              "type": "uint256"
            },
            {
              "internalType": "address",
              "name": "tenant",
              "type": "address"
            },
            {
              "internalType": "uint256",
              "name": "date",
              "type": "uint256"
            },
            {
              "internalType": "uint256",
              "name": "price",
              "type": "uint256"
            },
            {
              "internalType": "bool",
              "name": "checked",
              "type": "bool"
            },
            {
              "internalType": "bool",
              "name": "cancelled",
              "type": "bool"
            }
          ],
          "internalType": "struct Roomrental.ReservationStruct",
          "name": "",
          "type": "tuple"
        }
      ],
      "stateMutability": "view",
      "type": "function"
    },
    {
      "inputs": [
        {
          "internalType": "uint256",
          "name": "id",
          "type": "uint256"
        }
      ],
      "name": "getReservations",
      "outputs": [
        {
          "components": [
            {
              "internalType": "uint256",
              "name": "id",
              "type": "uint256"
            },
            {
              "internalType": "address",
              "name": "tenant",
              "type": "address"
            },
            {
              "internalType": "uint256",
              "name": "date",
              "type": "uint256"
            },
            {
              "internalType": "uint256",
              "name": "price",
              "type": "uint256"
            },
            {
              "internalType": "bool",
              "name": "checked",
              "type": "bool"
            },
            {
              "internalType": "bool",
              "name": "cancelled",
              "type": "bool"
            }
          ],
          "internalType": "struct Roomrental.ReservationStruct[]",
          "name": "",
          "type": "tuple[]"
        }
      ],
      "stateMutability": "view",
      "type": "function"
    },
    {
      "inputs": [
        {
          "internalType": "uint256",
          "name": "appartmentId",
          "type": "uint256"
        }
      ],
      "name": "getReviews",
      "outputs": [
        {
          "components": [
            {
              "internalType": "uint256",
              "name": "id",
              "type": "uint256"
            },
            {
              "internalType": "uint256",
              "name": "appartmentId",
              "type": "uint256"
            },
            {
              "internalType": "string",
              "name": "reviewText",
              "type": "string"
            },
            {
              "internalType": "uint256",
              "name": "timestamp",
              "type": "uint256"
            },
            {
              "internalType": "address",
              "name": "owner",
              "type": "address"
            }
          ],
          "internalType": "struct Roomrental.ReviewStruct[]",
          "name": "",
          "type": "tuple[]"
        }
      ],
      "stateMutability": "view",
      "type": "function"
    },
    {
      "inputs": [
        {
          "internalType": "uint256",
          "name": "id",
          "type": "uint256"
        }
      ],
      "name": "getUnavailableDates",
      "outputs": [
        {
          "internalType": "uint256[]",
          "name": "",
          "type": "uint256[]"
        }
      ],
      "stateMutability": "view",
      "type": "function"
    },
    {
      "inputs": [
        {
          "internalType": "uint256",
          "name": "id",
          "type": "uint256"
        },
        {
          "internalType": "uint256",
          "name": "reservationId",
          "type": "uint256"
        }
      ],
      "name": "hasReservatedDateReached",
      "outputs": [
        {
          "internalType": "bool",
          "name": "",
          "type": "bool"
        }
      ],
      "stateMutability": "view",
      "type": "function"
    },
    {
      "inputs": [],
      "name": "owner",
      "outputs": [
        {
          "internalType": "address",
          "name": "",
          "type": "address"
        }
      ],
      "stateMutability": "view",
      "type": "function"
    },
    {
      "inputs": [
        {
          "internalType": "uint256",
          "name": "id",
          "type": "uint256"
        },
        {
          "internalType": "uint256",
          "name": "reservationId",
          "type": "uint256"
        },
        {
          "internalType": "uint256",
          "name": "date",
          "type": "uint256"
        }
      ],
      "name": "refundReservation",
      "outputs": [],
      "stateMutability": "nonpayable",
      "type": "function"
    },
    {
      "inputs": [],
      "name": "renounceOwnership",
      "outputs": [],
      "stateMutability": "nonpayable",
      "type": "function"
    },
    {
      "inputs": [
        {
          "internalType": "uint256",
          "name": "id",
          "type": "uint256"
        },
        {
          "internalType": "uint256[]",
          "name": "dates",
          "type": "uint256[]"
        }
      ],
      "name": "reservateApartment",
      "outputs": [],
      "stateMutability": "payable",
      "type": "function"
    },
    {
      "inputs": [],
      "name": "securityFee",
      "outputs": [
        {
          "internalType": "uint256",
          "name": "",
          "type": "uint256"
        }
      ],
      "stateMutability": "view",
      "type": "function"
    },
    {
      "inputs": [],
      "name": "taxPercent",
      "outputs": [
        {
          "internalType": "uint256",
          "name": "",
          "type": "uint256"
        }
      ],
      "stateMutability": "view",
      "type": "function"
    },
    {
      "inputs": [
        {
          "internalType": "uint256",
          "name": "appartmentId",
          "type": "uint256"
        }
      ],
      "name": "tenantReservated",
      "outputs": [
        {
          "internalType": "bool",
          "name": "",
          "type": "bool"
        }
      ],
      "stateMutability": "view",
      "type": "function"
    },
    {
      "inputs": [
        {
          "internalType": "address",
          "name": "newOwner",
          "type": "address"
        }
      ],
      "name": "transferOwnership",
      "outputs": [],
      "stateMutability": "nonpayable",
      "type": "function"
    },
    {
      "inputs": [
        {
          "internalType": "uint256",
          "name": "id",
          "type": "uint256"
        },
        {
          "internalType": "string",
          "name": "title",
          "type": "string"
        },
        {
          "internalType": "string",
          "name": "description",
          "type": "string"
        },
        {
          "internalType": "string",
          "name": "images",
          "type": "string"
        },
        {
          "internalType": "string",
          "name": "category",
          "type": "string"
        },
        {
          "internalType": "string",
          "name": "location",
          "type": "string"
        },
        {
          "internalType": "uint256",
          "name": "bathrooms",
          "type": "uint256"
        },
        {
          "internalType": "uint256",
          "name": "guests",
          "type": "uint256"
        },
        {
          "internalType": "uint256",
          "name": "rooms",
          "type": "uint256"
        },
        {
          "internalType": "uint256",
          "name": "price",
          "type": "uint256"
        }
      ],
      "name": "updateAppartment",
      "outputs": [],
      "stateMutability": "nonpayable",
      "type": "function"
    },
    {
      "inputs": [
        {
          "internalType": "uint256",
          "name": "newFee",
          "type": "uint256"
        }
      ],
      "name": "updateSecurityFee",
      "outputs": [],
      "stateMutability": "nonpayable",
      "type": "function"
    },
    {
      "inputs": [
        {
          "internalType": "uint256",
          "name": "newTaxPercent",
          "type": "uint256"
        }
      ],
      "name": "updateTaxPercent",
      "outputs": [],
      "stateMutability": "nonpayable",
      "type": "function"
    }
  ],
  "bytecode": "0x60806040523480156200001157600080fd5b50604051620039be380380620039be8339810160408190526200003491620000a2565b6200003f3362000052565b60018055600491909155600355620000c7565b600080546001600160a01b038381166001600160a01b0319831681178455604051919092169283917f8be0079c531659141344cd1fd0a4f28419497f9722a3daafe3b4186f6b6457e09190a35050565b60008060408385031215620000b657600080fd5b505080516020909101519092909150565b6138e780620000d76000396000f3fe6080604052600436106101665760003560e01c80639bd21370116100d1578063c4452e061161008a578063db2f80b711610064578063db2f80b71461050f578063dec30d391461053c578063eb4614451461055c578063f2fde38b1461057c57600080fd5b8063c4452e061461049f578063d68e1302146104cc578063d6b6d0b5146104e257600080fd5b80639bd21370146103d05780639d4a2255146103f0578063a4e436bc1461041d578063accba49314610430578063af11cd9a1461045d578063b1c980991461047d57600080fd5b8063715018a611610123578063715018a61461025d5780637541f41c1461027257806378419f61146102965780637aef370c146102b657806388b1973a146103885780638da5cb5b146103a857600080fd5b8063010b58ee1461016b57806301758e631461018d57806312a14056146101ad57806354515348146101fd5780635bb0c5d61461021d578063615911491461023d575b600080fd5b34801561017757600080fd5b5061018b610186366004612fa5565b61059c565b005b34801561019957600080fd5b5061018b6101a8366004612fc7565b610702565b3480156101b957600080fd5b506101e86101c8366004612ffc565b336000908152600c60209081526040808320938352929052205460ff1690565b60405190151581526020015b60405180910390f35b34801561020957600080fd5b506101e8610218366004612fa5565b6107cb565b34801561022957600080fd5b5061018b6102383660046130cc565b610811565b34801561024957600080fd5b5061018b610258366004612ffc565b610a05565b34801561026957600080fd5b5061018b610a55565b34801561027e57600080fd5b5061028860045481565b6040519081526020016101f4565b3480156102a257600080fd5b5061018b6102b1366004612fa5565b610a69565b3480156102c257600080fd5b5061034a6102d1366004612ffc565b60408051608081018252600080825260208201819052918101829052606081019190915250600090815260086020908152604091829020825160808101845281548152600182015492810192909252600201546001600160a01b03811692820192909252600160a01b90910460ff161515606082015290565b6040516101f4919081518152602080830151908201526040808301516001600160a01b03169082015260609182015115159181019190915260800190565b34801561039457600080fd5b5061018b6103a3366004613113565b610c21565b3480156103b457600080fd5b506000546040516001600160a01b0390911681526020016101f4565b3480156103dc57600080fd5b5061018b6103eb36600461313f565b610f8d565b3480156103fc57600080fd5b5061041061040b366004612ffc565b611403565b6040516101f49190613283565b61018b61042b366004613321565b61153e565b34801561043c57600080fd5b5061045061044b366004612fa5565b6117fe565b6040516101f49190613417565b34801561046957600080fd5b5061018b610478366004613425565b611897565b34801561048957600080fd5b50610492612174565b6040516101f49190613637565b3480156104ab57600080fd5b506104bf6104ba366004612ffc565b61260c565b6040516101f49190613699565b3480156104d857600080fd5b5061028860035481565b3480156104ee57600080fd5b506105026104fd366004612ffc565b612998565b6040516101f491906136b3565b34801561051b57600080fd5b5061052f61052a366004612ffc565b612a49565b6040516101f49190613701565b34801561054857600080fd5b5061018b610557366004612ffc565b612aab565b34801561056857600080fd5b5061018b610577366004612ffc565b612b9a565b34801561058857600080fd5b5061018b610597366004613739565b612ba7565b6000828152600560205260409020600a01546001600160a01b031633146106005760405162461bcd60e51b8152602060048201526013602482015272556e617574686f72697a656420656e7469747960681b60448201526064015b60405180910390fd5b600082815260066020526040902080548290811061062057610620613762565b600091825260209091206004600590920201015460ff16156106545760405162461bcd60e51b81526004016105f790613778565b600082815260066020526040812080548390811061067457610674613762565b9060005260206000209060050201600301549050600060646004548361069a91906137d5565b6106a491906137f4565b6000858152600560205260409020600a01549091506106d5906001600160a01b03166106d08385613816565b612c20565b6106f06106ea6000546001600160a01b031690565b82612c20565b6106fc33600354612c20565b50505050565b60008281526009602052604090205460ff166107575760405162461bcd60e51b815260206004820152601460248201527341706172746d656e74206e6f7420666f756e642160601b60448201526064016105f7565b604080516080810182526000602080830182815286845233848601908152951515606085019081529683526008909152929020905181559051600182015590516002909101805492511515600160a01b026001600160a81b03199093166001600160a01b0390921691909117919091179055565b60006107d5612c80565b60008481526006602052604090208054849081106107f5576107f5613762565b9060005260206000209060050201600201541090505b92915050565b60008281526009602052604090205460ff1661086f5760405162461bcd60e51b815260206004820152601860248201527f4170706172746d656e74206e6f7420617661696c61626c65000000000000000060448201526064016105f7565b336000908152600c6020908152604080832085845290915290205460ff166108d95760405162461bcd60e51b815260206004820152601860248201527f426f6f6b206669727374206265666f726520726576696577000000000000000060448201526064016105f7565b600081511161092a5760405162461bcd60e51b815260206004820152601b60248201527f52657669657720746578742063616e6e6f7420626520656d707479000000000060448201526064016105f7565b6109656040518060a001604052806000815260200160008152602001606081526020016000815260200160006001600160a01b031681525090565b6000838152600760208181526040808420805480875286840189815292870188815242606089015233608089015294845260018082018355918652948390208651600590960201948555905190840155905180518493926109cd926002850192910190612e44565b5060608201516003820155608090910151600490910180546001600160a01b0319166001600160a01b03909216919091179055505050565b610a0d612c9b565b60008111610a1a57600080fd5b60038190556040518181527f3790aeee57809af98fad1b89b9266c7934e03ed46702b541f2fef6f1e89d68279060200160405180910390a150565b610a5d612c9b565b610a676000612cf5565b565b6000828152600660205260409020805482908110610a8957610a89613762565b60009182526020909120600590910201600101546001600160a01b03163314610aeb5760405162461bcd60e51b8152602060048201526014602482015273556e617574686f72697a65642074656e616e742160601b60448201526064016105f7565b6000828152600660205260409020805482908110610b0b57610b0b613762565b600091825260209091206004600590920201015460ff1615610b3f5760405162461bcd60e51b81526004016105f790613778565b600082815260066020526040902080546001919083908110610b6357610b63613762565b60009182526020808320600592909202909101600401805460ff191693151593909317909255838152600690915260408120805483908110610ba757610ba7613762565b90600052602060002090600502016003015490506000606460045483610bcd91906137d5565b610bd791906137f4565b336000908152600c602090815260408083208884528252808320805460ff1916600117905560059091529020600a01549091506106d5906001600160a01b03166106d08385613816565b610c29612d45565b6000838152600660205260409020805483908110610c4957610c49613762565b600091825260209091206004600590920201015460ff1615610c7d5760405162461bcd60e51b81526004016105f790613778565b6000546001600160a01b03163314610daf576000838152600660205260409020805483908110610caf57610caf613762565b60009182526020909120600590910201600101546001600160a01b03163314610d115760405162461bcd60e51b8152602060048201526014602482015273556e617574686f72697a65642074656e616e742160601b60448201526064016105f7565b610d19612c80565b6000848152600660205260409020805484908110610d3957610d39613762565b90600052602060002090600502016002015411610daf5760405162461bcd60e51b815260206004820152602e60248201527f43616e206e6f206c6f6e67657220726566756e642c207265736572766174696f60448201526d1b8819185d19481cdd185c9d195960921b60648201526084016105f7565b600083815260066020526040902080546001919084908110610dd357610dd3613762565b6000918252602080832060046005909302019190910180549315156101000261ff001990941693909317909255848152600b825260408082208483528352808220805460ff19169055858252600a90925290812054610e3490600190613816565b6000858152600a602052604081208054929350909183908110610e5957610e59613762565b9060005260206000200154905080600a60008781526020019081526020016000208581548110610e8b57610e8b613762565b9060005260206000200181905550600a6000868152602001908152602001600020805480610ebb57610ebb61382d565b600190038181906000526020600020016000905590556000600660008781526020019081526020016000208581548110610ef757610ef7613762565b906000526020600020906005020160030154905060006064600454600354610f1f91906137d5565b610f2991906137f4565b6000888152600560205260409020600a0154600354919250610f5c916001600160a01b03909116906106d0908490613816565b610f716106ea6000546001600160a01b031690565b610f7b3383612c20565b50505050610f8860018055565b505050565b6000895111610fd65760405162461bcd60e51b81526020600482015260156024820152747469746c652063616e6e6f7420626520656d70747960581b60448201526064016105f7565b60008851116110275760405162461bcd60e51b815260206004820152601b60248201527f4465736372697074696f6e2063616e6e6f7420626520656d707479000000000060448201526064016105f7565b60008751116110715760405162461bcd60e51b8152602060048201526016602482015275496d616765732063616e6e6f7420626520656d70747960501b60448201526064016105f7565b60008651116110bd5760405162461bcd60e51b815260206004820152601860248201527763617465676f72792063616e6e6f7420626520656d70747960401b60448201526064016105f7565b60008551116111095760405162461bcd60e51b81526020600482015260186024820152776c6f636174696f6e2063616e6e6f7420626520656d70747960401b60448201526064016105f7565b600084116111545760405162461bcd60e51b815260206004820152601860248201527762617468726f6f6d732063616e6e6f74206265207a65726f60401b60448201526064016105f7565b6000831161119c5760405162461bcd60e51b81526020600482015260156024820152746775657374732063616e6e6f74206265207a65726f60581b60448201526064016105f7565b600082116111e35760405162461bcd60e51b8152602060048201526014602482015273526f6f6d732063616e6e6f74206265207a65726f60601b60448201526064016105f7565b6000811161122a5760405162461bcd60e51b815260206004820152601460248201527350726963652063616e6e6f74206265207a65726f60601b60448201526064016105f7565b611238600280546001019055565b611240612ec8565b6002805480835260208084018d815260408086018e9052606086018d9052608086018c905260a086018b905260c086018a905260e08601899052610100860188905261012086018790523361014087015260016101a08701819052426101c0880152600094855260098452818520805460ff1916821790559454845260058352909220845181559151805185946112dc93908501920190612e44565b50604082015180516112f8916002840191602090910190612e44565b5060608201518051611314916003840191602090910190612e44565b5060808201518051611330916004840191602090910190612e44565b5060a0820151805161134c916005840191602090910190612e44565b5060c0820151600682015560e0820151600782015561010082015160088201556101208201516009820155610140820151600a820180546101608501516101808601516101a08701511515600160b01b0260ff60b01b19911515600160a81b029190911661ffff60a81b19921515600160a01b026001600160a81b03199094166001600160a01b03909616959095179290921716929092179190911790556101c090910151600b9091015550505050505050505050565b606060076000838152602001908152602001600020805480602002602001604051908101604052809291908181526020016000905b8282101561153357838290600052602060002090600502016040518060a0016040529081600082015481526020016001820154815260200160028201805461147f90613843565b80601f01602080910402602001604051908101604052809291908181526020018280546114ab90613843565b80156114f85780601f106114cd576101008083540402835291602001916114f8565b820191906000526020600020905b8154815290600101906020018083116114db57829003601f168201915b505050918352505060038201546020808301919091526004909201546001600160a01b03166040909101529082526001929092019101611438565b505050509050919050565b60008281526009602052604090205460ff166115935760405162461bcd60e51b815260206004820152601460248201527341706172746d656e74206e6f7420666f756e642160601b60448201526064016105f7565b60035481516000848152600560205260409020600901546115b491906137d5565b6115be919061387e565b3410156116025760405162461bcd60e51b8152602060048201526012602482015271496e73756666696369656e742066756e642160701b60448201526064016105f7565b61160c8282612d9f565b6116635760405162461bcd60e51b815260206004820152602260248201527f52657365727661746564206461746520666f756e6420616d6f6e672064617465604482015261732160f01b60648201526084016105f7565b60005b8151811015610f8857611677612f4d565b6000848152600660209081526040909120548252339082015282518390839081106116a4576116a4613762565b6020908102919091018101516040808401918252600087815260058085528282206009015460608701908152898352600686528383208054600181810183559185528785208951919094029093019283558787015183820180546001600160a01b039092166001600160a01b03199092169190911790559451600283015551600382015560808601516004909101805460a088015115156101000261ff00199315159390931661ffff1990911617919091179055878152600b909352822085519192909186908690811061177a5761177a613762565b6020026020010151815260200190815260200160002060006101000a81548160ff021916908315150217905550600a60008581526020019081526020016000208383815181106117cc576117cc613762565b6020908102919091018101518254600181018455600093845291909220015550806117f681613896565b915050611666565b611806612f4d565b600083815260066020526040902080548390811061182657611826613762565b60009182526020918290206040805160c08101825260059093029091018054835260018101546001600160a01b0316938301939093526002830154908201526003820154606082015260049091015460ff8082161515608084015261010090910416151560a0820152905092915050565b60008a81526009602052604090205460ff1615156001146118f15760405162461bcd60e51b8152602060048201526014602482015273105c1c185c9d1b595b9d081b9bdd08199bdd5b9960621b60448201526064016105f7565b60008a8152600560205260409020600a01546001600160a01b031633146119655760405162461bcd60e51b815260206004820152602260248201527f556e617574686f72697a656420706572736f6e6e656c2c206f776e6572206f6e6044820152616c7960f01b60648201526084016105f7565b60008951116119ae5760405162461bcd60e51b81526020600482015260156024820152747469746c652063616e6e6f7420626520656d70747960581b60448201526064016105f7565b60008851116119ff5760405162461bcd60e51b815260206004820152601b60248201527f4465736372697074696f6e2063616e6e6f7420626520656d707479000000000060448201526064016105f7565b6000875111611a495760405162461bcd60e51b8152602060048201526016602482015275496d616765732063616e6e6f7420626520656d70747960501b60448201526064016105f7565b6000865111611a955760405162461bcd60e51b815260206004820152601860248201527763617465676f72792063616e6e6f7420626520656d70747960401b60448201526064016105f7565b6000855111611ae15760405162461bcd60e51b81526020600482015260186024820152776c6f636174696f6e2063616e6e6f7420626520656d70747960401b60448201526064016105f7565b60008411611b2c5760405162461bcd60e51b815260206004820152601860248201527762617468726f6f6d732063616e6e6f74206265207a65726f60401b60448201526064016105f7565b60008311611b745760405162461bcd60e51b81526020600482015260156024820152746775657374732063616e6e6f74206265207a65726f60581b60448201526064016105f7565b60008211611bbb5760405162461bcd60e51b8152602060048201526014602482015273526f6f6d732063616e6e6f74206265207a65726f60601b60448201526064016105f7565b60008111611c025760405162461bcd60e51b815260206004820152601460248201527350726963652063616e6e6f74206265207a65726f60601b60448201526064016105f7565b6000600560008c8152602001908152602001600020604051806101e001604052908160008201548152602001600182018054611c3d90613843565b80601f0160208091040260200160405190810160405280929190818152602001828054611c6990613843565b8015611cb65780601f10611c8b57610100808354040283529160200191611cb6565b820191906000526020600020905b815481529060010190602001808311611c9957829003601f168201915b50505050508152602001600282018054611ccf90613843565b80601f0160208091040260200160405190810160405280929190818152602001828054611cfb90613843565b8015611d485780601f10611d1d57610100808354040283529160200191611d48565b820191906000526020600020905b815481529060010190602001808311611d2b57829003601f168201915b50505050508152602001600382018054611d6190613843565b80601f0160208091040260200160405190810160405280929190818152602001828054611d8d90613843565b8015611dda5780601f10611daf57610100808354040283529160200191611dda565b820191906000526020600020905b815481529060010190602001808311611dbd57829003601f168201915b50505050508152602001600482018054611df390613843565b80601f0160208091040260200160405190810160405280929190818152602001828054611e1f90613843565b8015611e6c5780601f10611e4157610100808354040283529160200191611e6c565b820191906000526020600020905b815481529060010190602001808311611e4f57829003601f168201915b50505050508152602001600582018054611e8590613843565b80601f0160208091040260200160405190810160405280929190818152602001828054611eb190613843565b8015611efe5780601f10611ed357610100808354040283529160200191611efe565b820191906000526020600020905b815481529060010190602001808311611ee157829003601f168201915b5050505050815260200160068201548152602001600782015481526020016008820154815260200160098201548152602001600a820160009054906101000a90046001600160a01b03166001600160a01b03166001600160a01b03168152602001600a820160149054906101000a900460ff16151515158152602001600a820160159054906101000a900460ff16151515158152602001600a820160169054906101000a900460ff16151515158152602001600b820154815250509050898160200181905250888160400181905250878160600181905250868160800181905250858160a00181905250848160c0018181525050838160e00181815250508281610100018181525050818161012001818152505080600560008d815260200190815260200160002060008201518160000155602082015181600101908051906020019061204c929190612e44565b5060408201518051612068916002840191602090910190612e44565b5060608201518051612084916003840191602090910190612e44565b50608082015180516120a0916004840191602090910190612e44565b5060a082015180516120bc916005840191602090910190612e44565b5060c0820151600682015560e0820151600782015561010082015160088201556101208201516009820155610140820151600a820180546101608501516101808601516101a08701511515600160b01b0260ff60b01b19911515600160a81b029190911661ffff60a81b19921515600160a01b026001600160a81b03199094166001600160a01b03909616959095179290921716929092179190911790556101c090910151600b909101555050505050505050505050565b6060600060015b60025481116121c4576000818152600560205260409020600a0154600160a81b900460ff166121b257816121ae81613896565b9250505b806121bc81613896565b91505061217b565b508067ffffffffffffffff8111156121de576121de613015565b60405190808252806020026020018201604052801561221757816020015b612204612ec8565b8152602001906001900390816121fc5790505b509150600060015b6002548111612606576000818152600560205260409020600a0154600160a81b900460ff166125f45760056000828152602001908152602001600020604051806101e00160405290816000820154815260200160018201805461228190613843565b80601f01602080910402602001604051908101604052809291908181526020018280546122ad90613843565b80156122fa5780601f106122cf576101008083540402835291602001916122fa565b820191906000526020600020905b8154815290600101906020018083116122dd57829003601f168201915b5050505050815260200160028201805461231390613843565b80601f016020809104026020016040519081016040528092919081815260200182805461233f90613843565b801561238c5780601f106123615761010080835404028352916020019161238c565b820191906000526020600020905b81548152906001019060200180831161236f57829003601f168201915b505050505081526020016003820180546123a590613843565b80601f01602080910402602001604051908101604052809291908181526020018280546123d190613843565b801561241e5780601f106123f35761010080835404028352916020019161241e565b820191906000526020600020905b81548152906001019060200180831161240157829003601f168201915b5050505050815260200160048201805461243790613843565b80601f016020809104026020016040519081016040528092919081815260200182805461246390613843565b80156124b05780601f10612485576101008083540402835291602001916124b0565b820191906000526020600020905b81548152906001019060200180831161249357829003601f168201915b505050505081526020016005820180546124c990613843565b80601f01602080910402602001604051908101604052809291908181526020018280546124f590613843565b80156125425780601f1061251757610100808354040283529160200191612542565b820191906000526020600020905b81548152906001019060200180831161252557829003601f168201915b505050918352505060068201546020820152600782015460408201526008820154606082015260098201546080820152600a8201546001600160a01b03811660a083015260ff600160a01b82048116151560c0840152600160a81b82048116151560e0840152600160b01b909104161515610100820152600b909101546101209091015284518590849081106125da576125da613762565b602002602001018190525081806125f090613896565b9250505b806125fe81613896565b91505061221f565b50505090565b612614612ec8565b60056000838152602001908152602001600020604051806101e00160405290816000820154815260200160018201805461264d90613843565b80601f016020809104026020016040519081016040528092919081815260200182805461267990613843565b80156126c65780601f1061269b576101008083540402835291602001916126c6565b820191906000526020600020905b8154815290600101906020018083116126a957829003601f168201915b505050505081526020016002820180546126df90613843565b80601f016020809104026020016040519081016040528092919081815260200182805461270b90613843565b80156127585780601f1061272d57610100808354040283529160200191612758565b820191906000526020600020905b81548152906001019060200180831161273b57829003601f168201915b5050505050815260200160038201805461277190613843565b80601f016020809104026020016040519081016040528092919081815260200182805461279d90613843565b80156127ea5780601f106127bf576101008083540402835291602001916127ea565b820191906000526020600020905b8154815290600101906020018083116127cd57829003601f168201915b5050505050815260200160048201805461280390613843565b80601f016020809104026020016040519081016040528092919081815260200182805461282f90613843565b801561287c5780601f106128515761010080835404028352916020019161287c565b820191906000526020600020905b81548152906001019060200180831161285f57829003601f168201915b5050505050815260200160058201805461289590613843565b80601f01602080910402602001604051908101604052809291908181526020018280546128c190613843565b801561290e5780601f106128e35761010080835404028352916020019161290e565b820191906000526020600020905b8154815290600101906020018083116128f157829003601f168201915b505050918352505060068201546020820152600782015460408201526008820154606082015260098201546080820152600a8201546001600160a01b03811660a083015260ff600160a01b82048116151560c0840152600160a81b82048116151560e0840152600160b01b909104161515610100820152600b909101546101209091015292915050565b606060066000838152602001908152602001600020805480602002602001604051908101604052809291908181526020016000905b828210156115335760008481526020908190206040805160c08101825260058602909201805483526001808201546001600160a01b031684860152600282015492840192909252600381015460608401526004015460ff8082161515608085015261010090910416151560a083015290835290920191016129cd565b6000818152600a6020908152604091829020805483518184028101840190945280845260609392830182828015612a9f57602002820191906000526020600020905b815481526020019060010190808311612a8b575b50505050509050919050565b60008181526009602052604090205460ff161515600114612b055760405162461bcd60e51b8152602060048201526014602482015273105c1c185c9d1b595b9d081b9bdd08199bdd5b9960621b60448201526064016105f7565b6000818152600560205260409020600a01546001600160a01b03163314612b645760405162461bcd60e51b8152602060048201526013602482015272556e617574686f72697a656420656e7469747960681b60448201526064016105f7565b6000908152600960209081526040808320805460ff1916905560059091529020600a01805460ff60a81b1916600160a81b179055565b612ba2612c9b565b600455565b612baf612c9b565b6001600160a01b038116612c145760405162461bcd60e51b815260206004820152602660248201527f4f776e61626c653a206e6577206f776e657220697320746865207a65726f206160448201526564647265737360d01b60648201526084016105f7565b612c1d81612cf5565b50565b6000826001600160a01b03168260405160006040518083038185875af1925050503d8060008114612c6d576040519150601f19603f3d011682016040523d82523d6000602084013e612c72565b606091505b5050905080610f8857600080fd5b600080612c8f426103e86137d5565b61080b906103e861387e565b6000546001600160a01b03163314610a675760405162461bcd60e51b815260206004820181905260248201527f4f776e61626c653a2063616c6c6572206973206e6f7420746865206f776e657260448201526064016105f7565b600080546001600160a01b038381166001600160a01b0319831681178455604051919092169283917f8be0079c531659141344cd1fd0a4f28419497f9722a3daafe3b4186f6b6457e09190a35050565b60026001541415612d985760405162461bcd60e51b815260206004820152601f60248201527f5265656e7472616e637947756172643a207265656e7472616e742063616c6c0060448201526064016105f7565b6002600155565b60006001815b8351811015612e3c5760005b6000868152600a6020526040902054811015612e29576000868152600a60205260409020805482908110612de757612de7613762565b9060005260206000200154858381518110612e0457612e04613762565b60200260200101511415612e1757600092505b80612e2181613896565b915050612db1565b5080612e3481613896565b915050612da5565b509392505050565b828054612e5090613843565b90600052602060002090601f016020900481019282612e725760008555612eb8565b82601f10612e8b57805160ff1916838001178555612eb8565b82800160010185558215612eb8579182015b82811115612eb8578251825591602001919060010190612e9d565b50612ec4929150612f90565b5090565b604051806101e001604052806000815260200160608152602001606081526020016060815260200160608152602001606081526020016000815260200160008152602001600081526020016000815260200160006001600160a01b03168152602001600015158152602001600015158152602001600015158152602001600081525090565b6040518060c001604052806000815260200160006001600160a01b0316815260200160008152602001600081526020016000151581526020016000151581525090565b5b80821115612ec45760008155600101612f91565b60008060408385031215612fb857600080fd5b50508035926020909101359150565b60008060408385031215612fda57600080fd5b8235915060208301358015158114612ff157600080fd5b809150509250929050565b60006020828403121561300e57600080fd5b5035919050565b634e487b7160e01b600052604160045260246000fd5b604051601f8201601f1916810167ffffffffffffffff8111828210171561305457613054613015565b604052919050565b600082601f83011261306d57600080fd5b813567ffffffffffffffff81111561308757613087613015565b61309a601f8201601f191660200161302b565b8181528460208386010111156130af57600080fd5b816020850160208301376000918101602001919091529392505050565b600080604083850312156130df57600080fd5b82359150602083013567ffffffffffffffff8111156130fd57600080fd5b6131098582860161305c565b9150509250929050565b60008060006060848603121561312857600080fd5b505081359360208301359350604090920135919050565b60008060008060008060008060006101208a8c03121561315e57600080fd5b893567ffffffffffffffff8082111561317657600080fd5b6131828d838e0161305c565b9a5060208c013591508082111561319857600080fd5b6131a48d838e0161305c565b995060408c01359150808211156131ba57600080fd5b6131c68d838e0161305c565b985060608c01359150808211156131dc57600080fd5b6131e88d838e0161305c565b975060808c01359150808211156131fe57600080fd5b5061320b8c828d0161305c565b999c989b50969995989760a0870135975060c08701359660e081013596506101000135945092505050565b6000815180845260005b8181101561325c57602081850181015186830182015201613240565b8181111561326e576000602083870101525b50601f01601f19169290920160200192915050565b60006020808301818452808551808352604092508286019150828160051b87010184880160005b8381101561331357603f19898403018552815160a08151855288820151898601528782015181898701526132e082870182613236565b606084810151908801526080938401516001600160a01b03169390960192909252505093860193908601906001016132aa565b509098975050505050505050565b6000806040838503121561333457600080fd5b8235915060208084013567ffffffffffffffff8082111561335457600080fd5b818601915086601f83011261336857600080fd5b81358181111561337a5761337a613015565b8060051b915061338b84830161302b565b81815291830184019184810190898411156133a557600080fd5b938501935b838510156133c3578435825293850193908501906133aa565b8096505050505050509250929050565b805182526020808201516001600160a01b031690830152604080820151908301526060808201519083015260808082015115159083015260a0908101511515910152565b60c0810161080b82846133d3565b6000806000806000806000806000806101408b8d03121561344557600080fd5b8a35995060208b013567ffffffffffffffff8082111561346457600080fd5b6134708e838f0161305c565b9a5060408d013591508082111561348657600080fd5b6134928e838f0161305c565b995060608d01359150808211156134a857600080fd5b6134b48e838f0161305c565b985060808d01359150808211156134ca57600080fd5b6134d68e838f0161305c565b975060a08d01359150808211156134ec57600080fd5b506134f98d828e0161305c565b95505060c08b0135935060e08b013592506101008b013591506101208b013590509295989b9194979a5092959850565b60006101e082518452602083015181602086015261354982860182613236565b915050604083015184820360408601526135638282613236565b9150506060830151848203606086015261357d8282613236565b915050608083015184820360808601526135978282613236565b91505060a083015184820360a08601526135b18282613236565b91505060c083015160c085015260e083015160e0850152610100808401518186015250610120808401518186015250610140808401516135fb828701826001600160a01b03169052565b505061016083810151151590850152610180808401511515908501526101a0808401511515908501526101c09283015192909301919091525090565b6000602080830181845280855180835260408601915060408160051b870101925083870160005b8281101561368c57603f1988860301845261367a858351613529565b9450928501929085019060010161365e565b5092979650505050505050565b6020815260006136ac6020830184613529565b9392505050565b6020808252825182820181905260009190848201906040850190845b818110156136f5576136e28385516133d3565b9284019260c092909201916001016136cf565b50909695505050505050565b6020808252825182820181905260009190848201906040850190845b818110156136f55783518352928401929184019160010161371d565b60006020828403121561374b57600080fd5b81356001600160a01b03811681146136ac57600080fd5b634e487b7160e01b600052603260045260246000fd5b60208082526027908201527f41706172746d656e7420616c726561647920636865636b6564206f6e207468696040820152667320646174652160c81b606082015260800190565b634e487b7160e01b600052601160045260246000fd5b60008160001904831182151516156137ef576137ef6137bf565b500290565b60008261381157634e487b7160e01b600052601260045260246000fd5b500490565b600082821015613828576138286137bf565b500390565b634e487b7160e01b600052603160045260246000fd5b600181811c9082168061385757607f821691505b6020821081141561387857634e487b7160e01b600052602260045260246000fd5b50919050565b60008219821115613891576138916137bf565b500190565b60006000198214156138aa576138aa6137bf565b506001019056fea264697066735822122011f1bb0ee98619bb56d87f48479d12d649484c14d097906115623ebcd87034a064736f6c634300080b0033",
  "linkReferences": {},
  "deployedLinkReferences": {}
}