{
  "_format": "hh-sol-artifact-1",
  "contractName": "Roomrental",
  "sourceName": "src/contracts/roomrental.sol",
  "abi": [
    {
      "inputs": [
        {
          "internalType": "uint256",
          "name": "_taxPercent",
          "type": "uint256"
        },
        {
          "internalType": "uint256",
          "name": "_securityFee",
          "type": "uint256"
        }
      ],
      "stateMutability": "nonpayable",
      "type": "constructor"
    },
    {
      "anonymous": false,
      "inputs": [
        {
          "indexed": true,
          "internalType": "address",
          "name": "previousOwner",
          "type": "address"
        },
        {
          "indexed": true,
          "internalType": "address",
          "name": "newOwner",
          "type": "address"
        }
      ],
      "name": "OwnershipTransferred",
      "type": "event"
    },
    {
      "anonymous": false,
      "inputs": [
        {
          "indexed": false,
          "internalType": "uint256",
          "name": "newFee",
          "type": "uint256"
        }
      ],
      "name": "SecurityFeeUpdated",
      "type": "event"
    },
    {
      "inputs": [
        {
          "internalType": "uint256",
          "name": "appartmentId",
          "type": "uint256"
        },
        {
          "internalType": "string",
          "name": "reviewText",
          "type": "string"
        }
      ],
      "name": "addReview",
      "outputs": [],
      "stateMutability": "nonpayable",
      "type": "function"
    },
    {
      "inputs": [
        {
          "internalType": "uint256",
          "name": "id",
          "type": "uint256"
        },
        {
          "internalType": "uint256",
          "name": "reservationId",
          "type": "uint256"
        }
      ],
      "name": "checkInApartment",
      "outputs": [],
      "stateMutability": "nonpayable",
      "type": "function"
    },
    {
      "inputs": [
        {
          "internalType": "uint256",
          "name": "id",
          "type": "uint256"
        },
        {
          "internalType": "uint256",
          "name": "reservationId",
          "type": "uint256"
        }
      ],
      "name": "claimFunds",
      "outputs": [],
      "stateMutability": "nonpayable",
      "type": "function"
    },
    {
      "inputs": [
        {
          "internalType": "string",
          "name": "title",
          "type": "string"
        },
        {
          "internalType": "string",
          "name": "description",
          "type": "string"
        },
        {
          "internalType": "string",
          "name": "images",
          "type": "string"
        },
        {
          "internalType": "string",
          "name": "category",
          "type": "string"
        },
        {
          "internalType": "string",
          "name": "location",
          "type": "string"
        },
        {
          "internalType": "uint256",
          "name": "bathrooms",
          "type": "uint256"
        },
        {
          "internalType": "uint256",
          "name": "guests",
          "type": "uint256"
        },
        {
          "internalType": "uint256",
          "name": "rooms",
          "type": "uint256"
        },
        {
          "internalType": "uint256",
          "name": "price",
          "type": "uint256"
        }
      ],
      "name": "createAppartment",
      "outputs": [],
      "stateMutability": "nonpayable",
      "type": "function"
    },
    {
      "inputs": [
        {
          "internalType": "uint256",
          "name": "id",
          "type": "uint256"
        }
      ],
      "name": "deleteAppartment",
      "outputs": [],
      "stateMutability": "nonpayable",
      "type": "function"
    },
    {
      "inputs": [
        {
          "internalType": "uint256",
          "name": "id",
          "type": "uint256"
        }
      ],
      "name": "getApartment",
      "outputs": [
        {
          "components": [
            {
              "internalType": "uint256",
              "name": "id",
              "type": "uint256"
            },
            {
              "internalType": "string",
              "name": "title",
              "type": "string"
            },
            {
              "internalType": "string",
              "name": "description",
              "type": "string"
            },
            {
              "internalType": "string",
              "name": "images",
              "type": "string"
            },
            {
              "internalType": "string",
              "name": "category",
              "type": "string"
            },
            {
              "internalType": "string",
              "name": "location",
              "type": "string"
            },
            {
              "internalType": "uint256",
              "name": "bathrooms",
              "type": "uint256"
            },
            {
              "internalType": "uint256",
              "name": "guests",
              "type": "uint256"
            },
            {
              "internalType": "uint256",
              "name": "rooms",
              "type": "uint256"
            },
            {
              "internalType": "uint256",
              "name": "price",
              "type": "uint256"
            },
            {
              "internalType": "address",
              "name": "owner",
              "type": "address"
            },
            {
              "internalType": "bool",
              "name": "reservated",
              "type": "bool"
            },
            {
              "internalType": "bool",
              "name": "deleted",
              "type": "bool"
            },
            {
              "internalType": "bool",
              "name": "availablity",
              "type": "bool"
            },
            {
              "internalType": "uint256",
              "name": "timestamp",
              "type": "uint256"
            }
          ],
          "internalType": "struct Roomrental.ApartmentStruct",
          "name": "",
          "type": "tuple"
        }
      ],
      "stateMutability": "view",
      "type": "function"
    },
    {
      "inputs": [],
      "name": "getApartments",
      "outputs": [
        {
          "components": [
            {
              "internalType": "uint256",
              "name": "id",
              "type": "uint256"
            },
            {
              "internalType": "string",
              "name": "title",
              "type": "string"
            },
            {
              "internalType": "string",
              "name": "description",
              "type": "string"
            },
            {
              "internalType": "string",
              "name": "images",
              "type": "string"
            },
            {
              "internalType": "string",
              "name": "category",
              "type": "string"
            },
            {
              "internalType": "string",
              "name": "location",
              "type": "string"
            },
            {
              "internalType": "uint256",
              "name": "bathrooms",
              "type": "uint256"
            },
            {
              "internalType": "uint256",
              "name": "guests",
              "type": "uint256"
            },
            {
              "internalType": "uint256",
              "name": "rooms",
              "type": "uint256"
            },
            {
              "internalType": "uint256",
              "name": "price",
              "type": "uint256"
            },
            {
              "internalType": "address",
              "name": "owner",
              "type": "address"
            },
            {
              "internalType": "bool",
              "name": "reservated",
              "type": "bool"
            },
            {
              "internalType": "bool",
              "name": "deleted",
              "type": "bool"
            },
            {
              "internalType": "bool",
              "name": "availablity",
              "type": "bool"
            },
            {
              "internalType": "uint256",
              "name": "timestamp",
              "type": "uint256"
            }
          ],
          "internalType": "struct Roomrental.ApartmentStruct[]",
          "name": "Apartments",
          "type": "tuple[]"
        }
      ],
      "stateMutability": "view",
      "type": "function"
    },
    {
      "inputs": [
        {
          "internalType": "uint256",
          "name": "id",
          "type": "uint256"
        },
        {
          "internalType": "uint256",
          "name": "reservationId",
          "type": "uint256"
        }
      ],
      "name": "getReservation",
      "outputs": [
        {
          "components": [
            {
              "internalType": "uint256",
              "name": "id",
              "type": "uint256"
            },
            {
              "internalType": "address",
              "name": "tenant",
              "type": "address"
            },
            {
              "internalType": "uint256",
              "name": "date",
              "type": "uint256"
            },
            {
              "internalType": "uint256",
              "name": "price",
              "type": "uint256"
            },
            {
              "internalType": "bool",
              "name": "checked",
              "type": "bool"
            },
            {
              "internalType": "bool",
              "name": "cancelled",
              "type": "bool"
            }
          ],
          "internalType": "struct Roomrental.ReservationStruct",
          "name": "",
          "type": "tuple"
        }
      ],
      "stateMutability": "view",
      "type": "function"
    },
    {
      "inputs": [
        {
          "internalType": "uint256",
          "name": "id",
          "type": "uint256"
        }
      ],
      "name": "getReservations",
      "outputs": [
        {
          "components": [
            {
              "internalType": "uint256",
              "name": "id",
              "type": "uint256"
            },
            {
              "internalType": "address",
              "name": "tenant",
              "type": "address"
            },
            {
              "internalType": "uint256",
              "name": "date",
              "type": "uint256"
            },
            {
              "internalType": "uint256",
              "name": "price",
              "type": "uint256"
            },
            {
              "internalType": "bool",
              "name": "checked",
              "type": "bool"
            },
            {
              "internalType": "bool",
              "name": "cancelled",
              "type": "bool"
            }
          ],
          "internalType": "struct Roomrental.ReservationStruct[]",
          "name": "",
          "type": "tuple[]"
        }
      ],
      "stateMutability": "view",
      "type": "function"
    },
    {
      "inputs": [
        {
          "internalType": "uint256",
          "name": "appartmentId",
          "type": "uint256"
        }
      ],
      "name": "getReviews",
      "outputs": [
        {
          "components": [
            {
              "internalType": "uint256",
              "name": "id",
              "type": "uint256"
            },
            {
              "internalType": "uint256",
              "name": "appartmentId",
              "type": "uint256"
            },
            {
              "internalType": "string",
              "name": "reviewText",
              "type": "string"
            },
            {
              "internalType": "uint256",
              "name": "timestamp",
              "type": "uint256"
            },
            {
              "internalType": "address",
              "name": "owner",
              "type": "address"
            }
          ],
          "internalType": "struct Roomrental.ReviewStruct[]",
          "name": "",
          "type": "tuple[]"
        }
      ],
      "stateMutability": "view",
      "type": "function"
    },
    {
      "inputs": [
        {
          "internalType": "uint256",
          "name": "id",
          "type": "uint256"
        }
      ],
      "name": "getUnavailableDates",
      "outputs": [
        {
          "internalType": "uint256[]",
          "name": "",
          "type": "uint256[]"
        }
      ],
      "stateMutability": "view",
      "type": "function"
    },
    {
      "inputs": [
        {
          "internalType": "uint256",
          "name": "id",
          "type": "uint256"
        },
        {
          "internalType": "uint256",
          "name": "reservationId",
          "type": "uint256"
        }
      ],
      "name": "hasReservatedDateReached",
      "outputs": [
        {
          "internalType": "bool",
          "name": "",
          "type": "bool"
        }
      ],
      "stateMutability": "view",
      "type": "function"
    },
    {
      "inputs": [],
      "name": "owner",
      "outputs": [
        {
          "internalType": "address",
          "name": "",
          "type": "address"
        }
      ],
      "stateMutability": "view",
      "type": "function"
    },
    {
      "inputs": [
        {
          "internalType": "uint256",
          "name": "id",
          "type": "uint256"
        },
        {
          "internalType": "uint256",
          "name": "reservationId",
          "type": "uint256"
        },
        {
          "internalType": "uint256",
          "name": "date",
          "type": "uint256"
        }
      ],
      "name": "refundReservation",
      "outputs": [],
      "stateMutability": "nonpayable",
      "type": "function"
    },
    {
      "inputs": [],
      "name": "renounceOwnership",
      "outputs": [],
      "stateMutability": "nonpayable",
      "type": "function"
    },
    {
      "inputs": [
        {
          "internalType": "uint256",
          "name": "id",
          "type": "uint256"
        },
        {
          "internalType": "uint256[]",
          "name": "dates",
          "type": "uint256[]"
        }
      ],
      "name": "reservateApartment",
      "outputs": [],
      "stateMutability": "payable",
      "type": "function"
    },
    {
      "inputs": [],
      "name": "securityFee",
      "outputs": [
        {
          "internalType": "uint256",
          "name": "",
          "type": "uint256"
        }
      ],
      "stateMutability": "view",
      "type": "function"
    },
    {
      "inputs": [],
      "name": "taxPercent",
      "outputs": [
        {
          "internalType": "uint256",
          "name": "",
          "type": "uint256"
        }
      ],
      "stateMutability": "view",
      "type": "function"
    },
    {
      "inputs": [
        {
          "internalType": "uint256",
          "name": "appartmentId",
          "type": "uint256"
        }
      ],
      "name": "tenantReservated",
      "outputs": [
        {
          "internalType": "bool",
          "name": "",
          "type": "bool"
        }
      ],
      "stateMutability": "view",
      "type": "function"
    },
    {
      "inputs": [
        {
          "internalType": "address",
          "name": "newOwner",
          "type": "address"
        }
      ],
      "name": "transferOwnership",
      "outputs": [],
      "stateMutability": "nonpayable",
      "type": "function"
    },
    {
      "inputs": [
        {
          "internalType": "uint256",
          "name": "id",
          "type": "uint256"
        },
        {
          "internalType": "string",
          "name": "title",
          "type": "string"
        },
        {
          "internalType": "string",
          "name": "description",
          "type": "string"
        },
        {
          "internalType": "string",
          "name": "images",
          "type": "string"
        },
        {
          "internalType": "string",
          "name": "category",
          "type": "string"
        },
        {
          "internalType": "string",
          "name": "location",
          "type": "string"
        },
        {
          "internalType": "uint256",
          "name": "bathrooms",
          "type": "uint256"
        },
        {
          "internalType": "uint256",
          "name": "guests",
          "type": "uint256"
        },
        {
          "internalType": "uint256",
          "name": "rooms",
          "type": "uint256"
        },
        {
          "internalType": "uint256",
          "name": "price",
          "type": "uint256"
        }
      ],
      "name": "updateAppartment",
      "outputs": [],
      "stateMutability": "nonpayable",
      "type": "function"
    },
    {
      "inputs": [
        {
          "internalType": "uint256",
          "name": "newFee",
          "type": "uint256"
        }
      ],
      "name": "updateSecurityFee",
      "outputs": [],
      "stateMutability": "nonpayable",
      "type": "function"
    },
    {
      "inputs": [
        {
          "internalType": "uint256",
          "name": "newTaxPercent",
          "type": "uint256"
        }
      ],
      "name": "updateTaxPercent",
      "outputs": [],
      "stateMutability": "nonpayable",
      "type": "function"
    }
  ],
  "bytecode": "0x60806040523480156200001157600080fd5b50604051620037a8380380620037a88339810160408190526200003491620000a2565b6200003f3362000052565b60018055600491909155600355620000c7565b600080546001600160a01b038381166001600160a01b0319831681178455604051919092169283917f8be0079c531659141344cd1fd0a4f28419497f9722a3daafe3b4186f6b6457e09190a35050565b60008060408385031215620000b657600080fd5b505080516020909101519092909150565b6136d180620000d76000396000f3fe6080604052600436106101405760003560e01c80639d4a2255116100b6578063d68e13021161006f578063d68e1302146103b4578063d6b6d0b5146103ca578063db2f80b7146103f7578063dec30d3914610424578063eb46144514610444578063f2fde38b1461046457600080fd5b80639d4a2255146102d8578063a4e436bc14610305578063accba49314610318578063af11cd9a14610345578063b1c9809914610365578063c4452e061461038757600080fd5b8063715018a611610108578063715018a6146102175780637541f41c1461022c57806378419f611461025057806388b1973a146102705780638da5cb5b146102905780639bd21370146102b857600080fd5b8063010b58ee1461014557806312a140561461016757806354515348146101b75780635bb0c5d6146101d757806361591149146101f7575b600080fd5b34801561015157600080fd5b50610165610160366004612dc4565b610484565b005b34801561017357600080fd5b506101a2610182366004612de6565b336000908152600b60209081526040808320938352929052205460ff1690565b60405190151581526020015b60405180910390f35b3480156101c357600080fd5b506101a26101d2366004612dc4565b6105ea565b3480156101e357600080fd5b506101656101f2366004612eb6565b610630565b34801561020357600080fd5b50610165610212366004612de6565b610824565b34801561022357600080fd5b50610165610874565b34801561023857600080fd5b5061024260045481565b6040519081526020016101ae565b34801561025c57600080fd5b5061016561026b366004612dc4565b610888565b34801561027c57600080fd5b5061016561028b366004612efd565b610a40565b34801561029c57600080fd5b506000546040516001600160a01b0390911681526020016101ae565b3480156102c457600080fd5b506101656102d3366004612f29565b610dac565b3480156102e457600080fd5b506102f86102f3366004612de6565b611222565b6040516101ae919061306d565b61016561031336600461310b565b61135d565b34801561032457600080fd5b50610338610333366004612dc4565b61161d565b6040516101ae9190613201565b34801561035157600080fd5b5061016561036036600461320f565b6116b6565b34801561037157600080fd5b5061037a611f93565b6040516101ae9190613421565b34801561039357600080fd5b506103a76103a2366004612de6565b61242b565b6040516101ae9190613483565b3480156103c057600080fd5b5061024260035481565b3480156103d657600080fd5b506103ea6103e5366004612de6565b6127b7565b6040516101ae919061349d565b34801561040357600080fd5b50610417610412366004612de6565b612868565b6040516101ae91906134eb565b34801561043057600080fd5b5061016561043f366004612de6565b6128ca565b34801561045057600080fd5b5061016561045f366004612de6565b6129b9565b34801561047057600080fd5b5061016561047f366004613523565b6129c6565b6000828152600560205260409020600a01546001600160a01b031633146104e85760405162461bcd60e51b8152602060048201526013602482015272556e617574686f72697a656420656e7469747960681b60448201526064015b60405180910390fd5b60008281526006602052604090208054829081106105085761050861354c565b600091825260209091206004600590920201015460ff161561053c5760405162461bcd60e51b81526004016104df90613562565b600082815260066020526040812080548390811061055c5761055c61354c565b9060005260206000209060050201600301549050600060646004548361058291906135bf565b61058c91906135de565b6000858152600560205260409020600a01549091506105bd906001600160a01b03166105b88385613600565b612a3f565b6105d86105d26000546001600160a01b031690565b82612a3f565b6105e433600354612a3f565b50505050565b60006105f4612a9f565b60008481526006602052604090208054849081106106145761061461354c565b9060005260206000209060050201600201541090505b92915050565b60008281526008602052604090205460ff1661068e5760405162461bcd60e51b815260206004820152601860248201527f4170706172746d656e74206e6f7420617661696c61626c65000000000000000060448201526064016104df565b336000908152600b6020908152604080832085845290915290205460ff166106f85760405162461bcd60e51b815260206004820152601860248201527f426f6f6b206669727374206265666f726520726576696577000000000000000060448201526064016104df565b60008151116107495760405162461bcd60e51b815260206004820152601b60248201527f52657669657720746578742063616e6e6f7420626520656d707479000000000060448201526064016104df565b6107846040518060a001604052806000815260200160008152602001606081526020016000815260200160006001600160a01b031681525090565b6000838152600760208181526040808420805480875286840189815292870188815242606089015233608089015294845260018082018355918652948390208651600590960201948555905190840155905180518493926107ec926002850192910190612c63565b5060608201516003820155608090910151600490910180546001600160a01b0319166001600160a01b03909216919091179055505050565b61082c612aba565b6000811161083957600080fd5b60038190556040518181527f3790aeee57809af98fad1b89b9266c7934e03ed46702b541f2fef6f1e89d68279060200160405180910390a150565b61087c612aba565b6108866000612b14565b565b60008281526006602052604090208054829081106108a8576108a861354c565b60009182526020909120600590910201600101546001600160a01b0316331461090a5760405162461bcd60e51b8152602060048201526014602482015273556e617574686f72697a65642074656e616e742160601b60448201526064016104df565b600082815260066020526040902080548290811061092a5761092a61354c565b600091825260209091206004600590920201015460ff161561095e5760405162461bcd60e51b81526004016104df90613562565b6000828152600660205260409020805460019190839081106109825761098261354c565b60009182526020808320600592909202909101600401805460ff1916931515939093179092558381526006909152604081208054839081106109c6576109c661354c565b906000526020600020906005020160030154905060006064600454836109ec91906135bf565b6109f691906135de565b336000908152600b602090815260408083208884528252808320805460ff1916600117905560059091529020600a01549091506105bd906001600160a01b03166105b88385613600565b610a48612b64565b6000838152600660205260409020805483908110610a6857610a6861354c565b600091825260209091206004600590920201015460ff1615610a9c5760405162461bcd60e51b81526004016104df90613562565b6000546001600160a01b03163314610bce576000838152600660205260409020805483908110610ace57610ace61354c565b60009182526020909120600590910201600101546001600160a01b03163314610b305760405162461bcd60e51b8152602060048201526014602482015273556e617574686f72697a65642074656e616e742160601b60448201526064016104df565b610b38612a9f565b6000848152600660205260409020805484908110610b5857610b5861354c565b90600052602060002090600502016002015411610bce5760405162461bcd60e51b815260206004820152602e60248201527f43616e206e6f206c6f6e67657220726566756e642c207265736572766174696f60448201526d1b8819185d19481cdd185c9d195960921b60648201526084016104df565b600083815260066020526040902080546001919084908110610bf257610bf261354c565b6000918252602080832060046005909302019190910180549315156101000261ff001990941693909317909255848152600a825260408082208483528352808220805460ff19169055858252600990925290812054610c5390600190613600565b60008581526009602052604081208054929350909183908110610c7857610c7861354c565b9060005260206000200154905080600960008781526020019081526020016000208581548110610caa57610caa61354c565b906000526020600020018190555060096000868152602001908152602001600020805480610cda57610cda613617565b600190038181906000526020600020016000905590556000600660008781526020019081526020016000208581548110610d1657610d1661354c565b906000526020600020906005020160030154905060006064600454600354610d3e91906135bf565b610d4891906135de565b6000888152600560205260409020600a0154600354919250610d7b916001600160a01b03909116906105b8908490613600565b610d906105d26000546001600160a01b031690565b610d9a3383612a3f565b50505050610da760018055565b505050565b6000895111610df55760405162461bcd60e51b81526020600482015260156024820152747469746c652063616e6e6f7420626520656d70747960581b60448201526064016104df565b6000885111610e465760405162461bcd60e51b815260206004820152601b60248201527f4465736372697074696f6e2063616e6e6f7420626520656d707479000000000060448201526064016104df565b6000875111610e905760405162461bcd60e51b8152602060048201526016602482015275496d616765732063616e6e6f7420626520656d70747960501b60448201526064016104df565b6000865111610edc5760405162461bcd60e51b815260206004820152601860248201527763617465676f72792063616e6e6f7420626520656d70747960401b60448201526064016104df565b6000855111610f285760405162461bcd60e51b81526020600482015260186024820152776c6f636174696f6e2063616e6e6f7420626520656d70747960401b60448201526064016104df565b60008411610f735760405162461bcd60e51b815260206004820152601860248201527762617468726f6f6d732063616e6e6f74206265207a65726f60401b60448201526064016104df565b60008311610fbb5760405162461bcd60e51b81526020600482015260156024820152746775657374732063616e6e6f74206265207a65726f60581b60448201526064016104df565b600082116110025760405162461bcd60e51b8152602060048201526014602482015273526f6f6d732063616e6e6f74206265207a65726f60601b60448201526064016104df565b600081116110495760405162461bcd60e51b815260206004820152601460248201527350726963652063616e6e6f74206265207a65726f60601b60448201526064016104df565b611057600280546001019055565b61105f612ce7565b6002805480835260208084018d815260408086018e9052606086018d9052608086018c905260a086018b905260c086018a905260e08601899052610100860188905261012086018790523361014087015260016101a08701819052426101c0880152600094855260088452818520805460ff1916821790559454845260058352909220845181559151805185946110fb93908501920190612c63565b5060408201518051611117916002840191602090910190612c63565b5060608201518051611133916003840191602090910190612c63565b506080820151805161114f916004840191602090910190612c63565b5060a0820151805161116b916005840191602090910190612c63565b5060c0820151600682015560e0820151600782015561010082015160088201556101208201516009820155610140820151600a820180546101608501516101808601516101a08701511515600160b01b0260ff60b01b19911515600160a81b029190911661ffff60a81b19921515600160a01b026001600160a81b03199094166001600160a01b03909616959095179290921716929092179190911790556101c090910151600b9091015550505050505050505050565b606060076000838152602001908152602001600020805480602002602001604051908101604052809291908181526020016000905b8282101561135257838290600052602060002090600502016040518060a0016040529081600082015481526020016001820154815260200160028201805461129e9061362d565b80601f01602080910402602001604051908101604052809291908181526020018280546112ca9061362d565b80156113175780601f106112ec57610100808354040283529160200191611317565b820191906000526020600020905b8154815290600101906020018083116112fa57829003601f168201915b505050918352505060038201546020808301919091526004909201546001600160a01b03166040909101529082526001929092019101611257565b505050509050919050565b60008281526008602052604090205460ff166113b25760405162461bcd60e51b815260206004820152601460248201527341706172746d656e74206e6f7420666f756e642160601b60448201526064016104df565b60035481516000848152600560205260409020600901546113d391906135bf565b6113dd9190613668565b3410156114215760405162461bcd60e51b8152602060048201526012602482015271496e73756666696369656e742066756e642160701b60448201526064016104df565b61142b8282612bbe565b6114825760405162461bcd60e51b815260206004820152602260248201527f52657365727661746564206461746520666f756e6420616d6f6e672064617465604482015261732160f01b60648201526084016104df565b60005b8151811015610da757611496612d6c565b6000848152600660209081526040909120548252339082015282518390839081106114c3576114c361354c565b6020908102919091018101516040808401918252600087815260058085528282206009015460608701908152898352600686528383208054600181810183559185528785208951919094029093019283558787015183820180546001600160a01b039092166001600160a01b03199092169190911790559451600283015551600382015560808601516004909101805460a088015115156101000261ff00199315159390931661ffff1990911617919091179055878152600a90935282208551919290918690869081106115995761159961354c565b6020026020010151815260200190815260200160002060006101000a81548160ff021916908315150217905550600960008581526020019081526020016000208383815181106115eb576115eb61354c565b60209081029190910181015182546001810184556000938452919092200155508061161581613680565b915050611485565b611625612d6c565b60008381526006602052604090208054839081106116455761164561354c565b60009182526020918290206040805160c08101825260059093029091018054835260018101546001600160a01b0316938301939093526002830154908201526003820154606082015260049091015460ff8082161515608084015261010090910416151560a0820152905092915050565b60008a81526008602052604090205460ff1615156001146117105760405162461bcd60e51b8152602060048201526014602482015273105c1c185c9d1b595b9d081b9bdd08199bdd5b9960621b60448201526064016104df565b60008a8152600560205260409020600a01546001600160a01b031633146117845760405162461bcd60e51b815260206004820152602260248201527f556e617574686f72697a656420706572736f6e6e656c2c206f776e6572206f6e6044820152616c7960f01b60648201526084016104df565b60008951116117cd5760405162461bcd60e51b81526020600482015260156024820152747469746c652063616e6e6f7420626520656d70747960581b60448201526064016104df565b600088511161181e5760405162461bcd60e51b815260206004820152601b60248201527f4465736372697074696f6e2063616e6e6f7420626520656d707479000000000060448201526064016104df565b60008751116118685760405162461bcd60e51b8152602060048201526016602482015275496d616765732063616e6e6f7420626520656d70747960501b60448201526064016104df565b60008651116118b45760405162461bcd60e51b815260206004820152601860248201527763617465676f72792063616e6e6f7420626520656d70747960401b60448201526064016104df565b60008551116119005760405162461bcd60e51b81526020600482015260186024820152776c6f636174696f6e2063616e6e6f7420626520656d70747960401b60448201526064016104df565b6000841161194b5760405162461bcd60e51b815260206004820152601860248201527762617468726f6f6d732063616e6e6f74206265207a65726f60401b60448201526064016104df565b600083116119935760405162461bcd60e51b81526020600482015260156024820152746775657374732063616e6e6f74206265207a65726f60581b60448201526064016104df565b600082116119da5760405162461bcd60e51b8152602060048201526014602482015273526f6f6d732063616e6e6f74206265207a65726f60601b60448201526064016104df565b60008111611a215760405162461bcd60e51b815260206004820152601460248201527350726963652063616e6e6f74206265207a65726f60601b60448201526064016104df565b6000600560008c8152602001908152602001600020604051806101e001604052908160008201548152602001600182018054611a5c9061362d565b80601f0160208091040260200160405190810160405280929190818152602001828054611a889061362d565b8015611ad55780601f10611aaa57610100808354040283529160200191611ad5565b820191906000526020600020905b815481529060010190602001808311611ab857829003601f168201915b50505050508152602001600282018054611aee9061362d565b80601f0160208091040260200160405190810160405280929190818152602001828054611b1a9061362d565b8015611b675780601f10611b3c57610100808354040283529160200191611b67565b820191906000526020600020905b815481529060010190602001808311611b4a57829003601f168201915b50505050508152602001600382018054611b809061362d565b80601f0160208091040260200160405190810160405280929190818152602001828054611bac9061362d565b8015611bf95780601f10611bce57610100808354040283529160200191611bf9565b820191906000526020600020905b815481529060010190602001808311611bdc57829003601f168201915b50505050508152602001600482018054611c129061362d565b80601f0160208091040260200160405190810160405280929190818152602001828054611c3e9061362d565b8015611c8b5780601f10611c6057610100808354040283529160200191611c8b565b820191906000526020600020905b815481529060010190602001808311611c6e57829003601f168201915b50505050508152602001600582018054611ca49061362d565b80601f0160208091040260200160405190810160405280929190818152602001828054611cd09061362d565b8015611d1d5780601f10611cf257610100808354040283529160200191611d1d565b820191906000526020600020905b815481529060010190602001808311611d0057829003601f168201915b5050505050815260200160068201548152602001600782015481526020016008820154815260200160098201548152602001600a820160009054906101000a90046001600160a01b03166001600160a01b03166001600160a01b03168152602001600a820160149054906101000a900460ff16151515158152602001600a820160159054906101000a900460ff16151515158152602001600a820160169054906101000a900460ff16151515158152602001600b820154815250509050898160200181905250888160400181905250878160600181905250868160800181905250858160a00181905250848160c0018181525050838160e00181815250508281610100018181525050818161012001818152505080600560008d8152602001908152602001600020600082015181600001556020820151816001019080519060200190611e6b929190612c63565b5060408201518051611e87916002840191602090910190612c63565b5060608201518051611ea3916003840191602090910190612c63565b5060808201518051611ebf916004840191602090910190612c63565b5060a08201518051611edb916005840191602090910190612c63565b5060c0820151600682015560e0820151600782015561010082015160088201556101208201516009820155610140820151600a820180546101608501516101808601516101a08701511515600160b01b0260ff60b01b19911515600160a81b029190911661ffff60a81b19921515600160a01b026001600160a81b03199094166001600160a01b03909616959095179290921716929092179190911790556101c090910151600b909101555050505050505050505050565b6060600060015b6002548111611fe3576000818152600560205260409020600a0154600160a81b900460ff16611fd15781611fcd81613680565b9250505b80611fdb81613680565b915050611f9a565b508067ffffffffffffffff811115611ffd57611ffd612dff565b60405190808252806020026020018201604052801561203657816020015b612023612ce7565b81526020019060019003908161201b5790505b509150600060015b6002548111612425576000818152600560205260409020600a0154600160a81b900460ff166124135760056000828152602001908152602001600020604051806101e0016040529081600082015481526020016001820180546120a09061362d565b80601f01602080910402602001604051908101604052809291908181526020018280546120cc9061362d565b80156121195780601f106120ee57610100808354040283529160200191612119565b820191906000526020600020905b8154815290600101906020018083116120fc57829003601f168201915b505050505081526020016002820180546121329061362d565b80601f016020809104026020016040519081016040528092919081815260200182805461215e9061362d565b80156121ab5780601f10612180576101008083540402835291602001916121ab565b820191906000526020600020905b81548152906001019060200180831161218e57829003601f168201915b505050505081526020016003820180546121c49061362d565b80601f01602080910402602001604051908101604052809291908181526020018280546121f09061362d565b801561223d5780601f106122125761010080835404028352916020019161223d565b820191906000526020600020905b81548152906001019060200180831161222057829003601f168201915b505050505081526020016004820180546122569061362d565b80601f01602080910402602001604051908101604052809291908181526020018280546122829061362d565b80156122cf5780601f106122a4576101008083540402835291602001916122cf565b820191906000526020600020905b8154815290600101906020018083116122b257829003601f168201915b505050505081526020016005820180546122e89061362d565b80601f01602080910402602001604051908101604052809291908181526020018280546123149061362d565b80156123615780601f1061233657610100808354040283529160200191612361565b820191906000526020600020905b81548152906001019060200180831161234457829003601f168201915b505050918352505060068201546020820152600782015460408201526008820154606082015260098201546080820152600a8201546001600160a01b03811660a083015260ff600160a01b82048116151560c0840152600160a81b82048116151560e0840152600160b01b909104161515610100820152600b909101546101209091015284518590849081106123f9576123f961354c565b6020026020010181905250818061240f90613680565b9250505b8061241d81613680565b91505061203e565b50505090565b612433612ce7565b60056000838152602001908152602001600020604051806101e00160405290816000820154815260200160018201805461246c9061362d565b80601f01602080910402602001604051908101604052809291908181526020018280546124989061362d565b80156124e55780601f106124ba576101008083540402835291602001916124e5565b820191906000526020600020905b8154815290600101906020018083116124c857829003601f168201915b505050505081526020016002820180546124fe9061362d565b80601f016020809104026020016040519081016040528092919081815260200182805461252a9061362d565b80156125775780601f1061254c57610100808354040283529160200191612577565b820191906000526020600020905b81548152906001019060200180831161255a57829003601f168201915b505050505081526020016003820180546125909061362d565b80601f01602080910402602001604051908101604052809291908181526020018280546125bc9061362d565b80156126095780601f106125de57610100808354040283529160200191612609565b820191906000526020600020905b8154815290600101906020018083116125ec57829003601f168201915b505050505081526020016004820180546126229061362d565b80601f016020809104026020016040519081016040528092919081815260200182805461264e9061362d565b801561269b5780601f106126705761010080835404028352916020019161269b565b820191906000526020600020905b81548152906001019060200180831161267e57829003601f168201915b505050505081526020016005820180546126b49061362d565b80601f01602080910402602001604051908101604052809291908181526020018280546126e09061362d565b801561272d5780601f106127025761010080835404028352916020019161272d565b820191906000526020600020905b81548152906001019060200180831161271057829003601f168201915b505050918352505060068201546020820152600782015460408201526008820154606082015260098201546080820152600a8201546001600160a01b03811660a083015260ff600160a01b82048116151560c0840152600160a81b82048116151560e0840152600160b01b909104161515610100820152600b909101546101209091015292915050565b606060066000838152602001908152602001600020805480602002602001604051908101604052809291908181526020016000905b828210156113525760008481526020908190206040805160c08101825260058602909201805483526001808201546001600160a01b031684860152600282015492840192909252600381015460608401526004015460ff8082161515608085015261010090910416151560a083015290835290920191016127ec565b6000818152600960209081526040918290208054835181840281018401909452808452606093928301828280156128be57602002820191906000526020600020905b8154815260200190600101908083116128aa575b50505050509050919050565b60008181526008602052604090205460ff1615156001146129245760405162461bcd60e51b8152602060048201526014602482015273105c1c185c9d1b595b9d081b9bdd08199bdd5b9960621b60448201526064016104df565b6000818152600560205260409020600a01546001600160a01b031633146129835760405162461bcd60e51b8152602060048201526013602482015272556e617574686f72697a656420656e7469747960681b60448201526064016104df565b6000908152600860209081526040808320805460ff1916905560059091529020600a01805460ff60a81b1916600160a81b179055565b6129c1612aba565b600455565b6129ce612aba565b6001600160a01b038116612a335760405162461bcd60e51b815260206004820152602660248201527f4f776e61626c653a206e6577206f776e657220697320746865207a65726f206160448201526564647265737360d01b60648201526084016104df565b612a3c81612b14565b50565b6000826001600160a01b03168260405160006040518083038185875af1925050503d8060008114612a8c576040519150601f19603f3d011682016040523d82523d6000602084013e612a91565b606091505b5050905080610da757600080fd5b600080612aae426103e86135bf565b61062a906103e8613668565b6000546001600160a01b031633146108865760405162461bcd60e51b815260206004820181905260248201527f4f776e61626c653a2063616c6c6572206973206e6f7420746865206f776e657260448201526064016104df565b600080546001600160a01b038381166001600160a01b0319831681178455604051919092169283917f8be0079c531659141344cd1fd0a4f28419497f9722a3daafe3b4186f6b6457e09190a35050565b60026001541415612bb75760405162461bcd60e51b815260206004820152601f60248201527f5265656e7472616e637947756172643a207265656e7472616e742063616c6c0060448201526064016104df565b6002600155565b60006001815b8351811015612c5b5760005b600086815260096020526040902054811015612c48576000868152600960205260409020805482908110612c0657612c0661354c565b9060005260206000200154858381518110612c2357612c2361354c565b60200260200101511415612c3657600092505b80612c4081613680565b915050612bd0565b5080612c5381613680565b915050612bc4565b509392505050565b828054612c6f9061362d565b90600052602060002090601f016020900481019282612c915760008555612cd7565b82601f10612caa57805160ff1916838001178555612cd7565b82800160010185558215612cd7579182015b82811115612cd7578251825591602001919060010190612cbc565b50612ce3929150612daf565b5090565b604051806101e001604052806000815260200160608152602001606081526020016060815260200160608152602001606081526020016000815260200160008152602001600081526020016000815260200160006001600160a01b03168152602001600015158152602001600015158152602001600015158152602001600081525090565b6040518060c001604052806000815260200160006001600160a01b0316815260200160008152602001600081526020016000151581526020016000151581525090565b5b80821115612ce35760008155600101612db0565b60008060408385031215612dd757600080fd5b50508035926020909101359150565b600060208284031215612df857600080fd5b5035919050565b634e487b7160e01b600052604160045260246000fd5b604051601f8201601f1916810167ffffffffffffffff81118282101715612e3e57612e3e612dff565b604052919050565b600082601f830112612e5757600080fd5b813567ffffffffffffffff811115612e7157612e71612dff565b612e84601f8201601f1916602001612e15565b818152846020838601011115612e9957600080fd5b816020850160208301376000918101602001919091529392505050565b60008060408385031215612ec957600080fd5b82359150602083013567ffffffffffffffff811115612ee757600080fd5b612ef385828601612e46565b9150509250929050565b600080600060608486031215612f1257600080fd5b505081359360208301359350604090920135919050565b60008060008060008060008060006101208a8c031215612f4857600080fd5b893567ffffffffffffffff80821115612f6057600080fd5b612f6c8d838e01612e46565b9a5060208c0135915080821115612f8257600080fd5b612f8e8d838e01612e46565b995060408c0135915080821115612fa457600080fd5b612fb08d838e01612e46565b985060608c0135915080821115612fc657600080fd5b612fd28d838e01612e46565b975060808c0135915080821115612fe857600080fd5b50612ff58c828d01612e46565b999c989b50969995989760a0870135975060c08701359660e081013596506101000135945092505050565b6000815180845260005b818110156130465760208185018101518683018201520161302a565b81811115613058576000602083870101525b50601f01601f19169290920160200192915050565b60006020808301818452808551808352604092508286019150828160051b87010184880160005b838110156130fd57603f19898403018552815160a08151855288820151898601528782015181898701526130ca82870182613020565b606084810151908801526080938401516001600160a01b0316939096019290925250509386019390860190600101613094565b509098975050505050505050565b6000806040838503121561311e57600080fd5b8235915060208084013567ffffffffffffffff8082111561313e57600080fd5b818601915086601f83011261315257600080fd5b81358181111561316457613164612dff565b8060051b9150613175848301612e15565b818152918301840191848101908984111561318f57600080fd5b938501935b838510156131ad57843582529385019390850190613194565b8096505050505050509250929050565b805182526020808201516001600160a01b031690830152604080820151908301526060808201519083015260808082015115159083015260a0908101511515910152565b60c0810161062a82846131bd565b6000806000806000806000806000806101408b8d03121561322f57600080fd5b8a35995060208b013567ffffffffffffffff8082111561324e57600080fd5b61325a8e838f01612e46565b9a5060408d013591508082111561327057600080fd5b61327c8e838f01612e46565b995060608d013591508082111561329257600080fd5b61329e8e838f01612e46565b985060808d01359150808211156132b457600080fd5b6132c08e838f01612e46565b975060a08d01359150808211156132d657600080fd5b506132e38d828e01612e46565b95505060c08b0135935060e08b013592506101008b013591506101208b013590509295989b9194979a5092959850565b60006101e082518452602083015181602086015261333382860182613020565b9150506040830151848203604086015261334d8282613020565b915050606083015184820360608601526133678282613020565b915050608083015184820360808601526133818282613020565b91505060a083015184820360a086015261339b8282613020565b91505060c083015160c085015260e083015160e0850152610100808401518186015250610120808401518186015250610140808401516133e5828701826001600160a01b03169052565b505061016083810151151590850152610180808401511515908501526101a0808401511515908501526101c09283015192909301919091525090565b6000602080830181845280855180835260408601915060408160051b870101925083870160005b8281101561347657603f19888603018452613464858351613313565b94509285019290850190600101613448565b5092979650505050505050565b6020815260006134966020830184613313565b9392505050565b6020808252825182820181905260009190848201906040850190845b818110156134df576134cc8385516131bd565b9284019260c092909201916001016134b9565b50909695505050505050565b6020808252825182820181905260009190848201906040850190845b818110156134df57835183529284019291840191600101613507565b60006020828403121561353557600080fd5b81356001600160a01b038116811461349657600080fd5b634e487b7160e01b600052603260045260246000fd5b60208082526027908201527f41706172746d656e7420616c726561647920636865636b6564206f6e207468696040820152667320646174652160c81b606082015260800190565b634e487b7160e01b600052601160045260246000fd5b60008160001904831182151516156135d9576135d96135a9565b500290565b6000826135fb57634e487b7160e01b600052601260045260246000fd5b500490565b600082821015613612576136126135a9565b500390565b634e487b7160e01b600052603160045260246000fd5b600181811c9082168061364157607f821691505b6020821081141561366257634e487b7160e01b600052602260045260246000fd5b50919050565b6000821982111561367b5761367b6135a9565b500190565b6000600019821415613694576136946135a9565b506001019056fea2646970667358221220f980dd1f725a2cde5c165ff2cb91657f7df3e749cb4221b6a5c2f7d2669d7ed664736f6c634300080b0033",
  "linkReferences": {},
  "deployedLinkReferences": {}
}